{
  "contractName": "Rewards",
  "abi": [
    {
      "inputs": [
        {
          "internalType": "contract ReputationToken",
          "name": "_reputationToken",
          "type": "address"
        },
        {
          "internalType": "contract AwardsToken",
          "name": "_awardsToken",
          "type": "address"
        }
      ],
      "stateMutability": "nonpayable",
      "type": "constructor"
    },
    {
      "anonymous": false,
      "inputs": [
        {
          "indexed": false,
          "internalType": "uint256",
          "name": "id",
          "type": "uint256"
        },
        {
          "indexed": false,
          "internalType": "string",
          "name": "title",
          "type": "string"
        },
        {
          "indexed": false,
          "internalType": "uint256",
          "name": "tipAmount",
          "type": "uint256"
        },
        {
          "indexed": false,
          "internalType": "address",
          "name": "author",
          "type": "address"
        }
      ],
      "name": "PaperCreated",
      "type": "event"
    },
    {
      "anonymous": false,
      "inputs": [
        {
          "indexed": false,
          "internalType": "uint256",
          "name": "id",
          "type": "uint256"
        },
        {
          "indexed": false,
          "internalType": "address payable",
          "name": "reviewer",
          "type": "address"
        },
        {
          "indexed": false,
          "internalType": "address",
          "name": "user",
          "type": "address"
        }
      ],
      "name": "ReputationGiven",
      "type": "event"
    },
    {
      "anonymous": false,
      "inputs": [
        {
          "indexed": false,
          "internalType": "uint256",
          "name": "id",
          "type": "uint256"
        },
        {
          "indexed": false,
          "internalType": "address payable",
          "name": "reviewer",
          "type": "address"
        },
        {
          "indexed": false,
          "internalType": "address",
          "name": "user",
          "type": "address"
        }
      ],
      "name": "ReputationTaken",
      "type": "event"
    },
    {
      "anonymous": false,
      "inputs": [
        {
          "indexed": false,
          "internalType": "uint256",
          "name": "id",
          "type": "uint256"
        },
        {
          "indexed": false,
          "internalType": "string",
          "name": "title",
          "type": "string"
        },
        {
          "indexed": false,
          "internalType": "address",
          "name": "author",
          "type": "address"
        },
        {
          "indexed": false,
          "internalType": "address payable",
          "name": "reviewer",
          "type": "address"
        }
      ],
      "name": "ReviewerAdded",
      "type": "event"
    },
    {
      "anonymous": false,
      "inputs": [
        {
          "indexed": false,
          "internalType": "uint256",
          "name": "id",
          "type": "uint256"
        },
        {
          "indexed": false,
          "internalType": "string",
          "name": "title",
          "type": "string"
        },
        {
          "indexed": false,
          "internalType": "uint256",
          "name": "tipAmount",
          "type": "uint256"
        },
        {
          "indexed": false,
          "internalType": "address",
          "name": "author",
          "type": "address"
        },
        {
          "indexed": false,
          "internalType": "address payable",
          "name": "reviewer",
          "type": "address"
        }
      ],
      "name": "ReviewerTipped",
      "type": "event"
    },
    {
      "inputs": [],
      "name": "awardsToken",
      "outputs": [
        {
          "internalType": "contract AwardsToken",
          "name": "",
          "type": "address"
        }
      ],
      "stateMutability": "view",
      "type": "function"
    },
    {
      "inputs": [
        {
          "internalType": "string",
          "name": "",
          "type": "string"
        }
      ],
      "name": "hasGivenAward",
      "outputs": [
        {
          "internalType": "bool",
          "name": "",
          "type": "bool"
        }
      ],
      "stateMutability": "view",
      "type": "function"
    },
    {
      "inputs": [
        {
          "internalType": "string",
          "name": "",
          "type": "string"
        }
      ],
      "name": "hasGivenReputation",
      "outputs": [
        {
          "internalType": "bool",
          "name": "",
          "type": "bool"
        }
      ],
      "stateMutability": "view",
      "type": "function"
    },
    {
      "inputs": [
        {
          "internalType": "uint256",
          "name": "",
          "type": "uint256"
        }
      ],
      "name": "papers",
      "outputs": [
        {
          "internalType": "uint256",
          "name": "id",
          "type": "uint256"
        },
        {
          "internalType": "string",
          "name": "title",
          "type": "string"
        },
        {
          "internalType": "uint256",
          "name": "tipAmount",
          "type": "uint256"
        },
        {
          "internalType": "address",
          "name": "author",
          "type": "address"
        }
      ],
      "stateMutability": "view",
      "type": "function"
    },
    {
      "inputs": [],
      "name": "reputationtoken",
      "outputs": [
        {
          "internalType": "contract ReputationToken",
          "name": "",
          "type": "address"
        }
      ],
      "stateMutability": "view",
      "type": "function"
    },
    {
      "inputs": [
        {
          "internalType": "address",
          "name": "",
          "type": "address"
        }
      ],
      "name": "reviewerExists",
      "outputs": [
        {
          "internalType": "bool",
          "name": "",
          "type": "bool"
        }
      ],
      "stateMutability": "view",
      "type": "function"
    },
    {
      "inputs": [
        {
          "internalType": "uint256",
          "name": "",
          "type": "uint256"
        }
      ],
      "name": "reviewers",
      "outputs": [
        {
          "internalType": "address",
          "name": "",
          "type": "address"
        }
      ],
      "stateMutability": "view",
      "type": "function"
    },
    {
      "inputs": [
        {
          "internalType": "string",
          "name": "_title",
          "type": "string"
        }
      ],
      "name": "createPaper",
      "outputs": [],
      "stateMutability": "nonpayable",
      "type": "function"
    },
    {
      "inputs": [
        {
          "internalType": "uint256",
          "name": "_id",
          "type": "uint256"
        },
        {
          "internalType": "address payable",
          "name": "_reviewer",
          "type": "address"
        },
        {
          "internalType": "string",
          "name": "review",
          "type": "string"
        }
      ],
      "name": "addReviewer",
      "outputs": [],
      "stateMutability": "nonpayable",
      "type": "function"
    },
    {
      "inputs": [
        {
          "internalType": "uint256",
          "name": "_id",
          "type": "uint256"
        },
        {
          "internalType": "address payable",
          "name": "_reviewer",
          "type": "address"
        }
      ],
      "name": "tipReviewer",
      "outputs": [],
      "stateMutability": "payable",
      "type": "function"
    },
    {
      "inputs": [
        {
          "internalType": "uint256",
          "name": "_id",
          "type": "uint256"
        },
        {
          "internalType": "address payable",
          "name": "_reviewer",
          "type": "address"
        }
      ],
      "name": "giveReputation",
      "outputs": [],
      "stateMutability": "payable",
      "type": "function"
    },
    {
      "inputs": [
        {
          "internalType": "uint256",
          "name": "_id",
          "type": "uint256"
        },
        {
          "internalType": "address payable",
          "name": "_reviewer",
          "type": "address"
        }
      ],
      "name": "undoGiveReputation",
      "outputs": [],
      "stateMutability": "payable",
      "type": "function"
    },
    {
      "inputs": [
        {
          "internalType": "address",
          "name": "_reviewer",
          "type": "address"
        }
      ],
      "name": "getReputation",
      "outputs": [
        {
          "internalType": "uint256",
          "name": "",
          "type": "uint256"
        }
      ],
      "stateMutability": "view",
      "type": "function"
    },
    {
      "inputs": [
        {
          "internalType": "uint256",
          "name": "_id",
          "type": "uint256"
        },
        {
          "internalType": "address payable",
          "name": "_reviewer",
          "type": "address"
        },
        {
          "internalType": "uint256",
          "name": "_awardId",
          "type": "uint256"
        }
      ],
      "name": "giveAward",
      "outputs": [],
      "stateMutability": "payable",
      "type": "function"
    },
    {
      "inputs": [],
      "name": "getReviewers",
      "outputs": [
        {
          "internalType": "address[]",
          "name": "",
          "type": "address[]"
        }
      ],
      "stateMutability": "view",
      "type": "function"
    },
    {
      "inputs": [
        {
          "internalType": "uint256",
          "name": "_id",
          "type": "uint256"
        }
      ],
      "name": "getPaperReviewers",
      "outputs": [
        {
          "internalType": "address[]",
          "name": "",
          "type": "address[]"
        }
      ],
      "stateMutability": "view",
      "type": "function"
    },
    {
      "inputs": [
        {
          "internalType": "uint256",
          "name": "_id",
          "type": "uint256"
        },
        {
          "internalType": "address",
          "name": "_reviewer",
          "type": "address"
        }
      ],
      "name": "getPaperReviewsByReviewer",
      "outputs": [
        {
          "internalType": "string",
          "name": "",
          "type": "string"
        }
      ],
      "stateMutability": "view",
      "type": "function"
    },
    {
      "inputs": [],
      "name": "getPaperCount",
      "outputs": [
        {
          "internalType": "uint256",
          "name": "",
          "type": "uint256"
        }
      ],
      "stateMutability": "view",
      "type": "function"
    },
    {
      "inputs": [
        {
          "internalType": "uint256",
          "name": "_id",
          "type": "uint256"
        }
      ],
      "name": "getPaperReviewerCount",
      "outputs": [
        {
          "internalType": "uint256",
          "name": "",
          "type": "uint256"
        }
      ],
      "stateMutability": "view",
      "type": "function"
    }
  ],
  "bytecode": "0x60806040523480156200001157600080fd5b5060405162002318380380620023188339818101604052810190620000379190620000ef565b81600260006101000a81548173ffffffffffffffffffffffffffffffffffffffff021916908373ffffffffffffffffffffffffffffffffffffffff16021790555080600360006101000a81548173ffffffffffffffffffffffffffffffffffffffff021916908373ffffffffffffffffffffffffffffffffffffffff1602179055505050620001c0565b600081519050620000d2816200018c565b92915050565b600081519050620000e981620001a6565b92915050565b600080604083850312156200010357600080fd5b60006200011385828601620000d8565b92505060206200012685828601620000c1565b9150509250929050565b60006200013d826200016c565b9050919050565b6000620001518262000130565b9050919050565b6000620001658262000130565b9050919050565b600073ffffffffffffffffffffffffffffffffffffffff82169050919050565b620001978162000144565b8114620001a357600080fd5b50565b620001b18162000158565b8114620001bd57600080fd5b50565b61214880620001d06000396000f3fe6080604052600436106101145760003560e01c806375a87643116100a05780639cc616f6116100645780639cc616f6146103d4578063cc87c91e14610411578063dda7247b1461042d578063df4d693414610456578063ef5ddf781461049357610114565b806375a87643146102db5780638c9b5e63146103065780638e8814981461033157806390a10f741461036e5780639c89a0e21461039757610114565b8063316ed42e116100e7578063316ed42e146101cb5780633d7e97f2146102085780635c34e898146102335780635e775a271461025e57806361a5d6a81461029e57610114565b806305a378a2146101195780631789064f1461013557806327167bd514610151578063305dd39d1461018e575b600080fd5b610133600480360381019061012e9190611854565b6104af565b005b61014f600480360381019061014a91906117b1565b610664565b005b34801561015d57600080fd5b50610178600480360381019061017391906116b9565b610816565b6040516101859190611b37565b60405180910390f35b34801561019a57600080fd5b506101b560048036038101906101b09190611723565b610836565b6040516101c29190611b15565b60405180910390f35b3480156101d757600080fd5b506101f260048036038101906101ed9190611723565b610920565b6040516101ff9190611baa565b60405180910390f35b34801561021457600080fd5b5061021d610989565b60405161022a9190611baa565b60405180910390f35b34801561023f57600080fd5b50610248610996565b6040516102559190611b6d565b60405180910390f35b34801561026a57600080fd5b5061028560048036038101906102809190611723565b6109bc565b6040516102959493929190611c8d565b60405180910390f35b3480156102aa57600080fd5b506102c560048036038101906102c091906116e2565b610aa4565b6040516102d29190611b37565b60405180910390f35b3480156102e757600080fd5b506102f0610ada565b6040516102fd9190611b15565b60405180910390f35b34801561031257600080fd5b5061031b610b68565b6040516103289190611b52565b60405180910390f35b34801561033d57600080fd5b50610358600480360381019061035391906116e2565b610b8e565b6040516103659190611b37565b60405180910390f35b34801561037a57600080fd5b50610395600480360381019061039091906116e2565b610bc4565b005b3480156103a357600080fd5b506103be60048036038101906103b991906116b9565b610ca6565b6040516103cb9190611baa565b60405180910390f35b3480156103e057600080fd5b506103fb60048036038101906103f69190611723565b610d5a565b6040516104089190611aa1565b60405180910390f35b61042b600480360381019061042691906117b1565b610d99565b005b34801561043957600080fd5b50610454600480360381019061044f91906117ed565b610ed7565b005b34801561046257600080fd5b5061047d60048036038101906104789190611775565b6112d9565b60405161048a9190611b88565b60405180910390f35b6104ad60048036038101906104a891906117b1565b611409565b005b60048054905083106104c057600080fd5b600481106104cd57600080fd5b600060048481548110610509577f4e487b7100000000000000000000000000000000000000000000000000000000600052603260045260246000fd5b906000526020600020906006020160050160008473ffffffffffffffffffffffffffffffffffffffff1673ffffffffffffffffffffffffffffffffffffffff168152602001908152602001600020805461056290611fcc565b9050141561056f57600080fd5b6000838333846040516020016105889493929190611bfc565b60405160208183030381529060405290506001816040516105a99190611a8a565b908152602001604051809103902060009054906101000a900460ff16156105cf57600080fd5b600360009054906101000a900473ffffffffffffffffffffffffffffffffffffffff1673ffffffffffffffffffffffffffffffffffffffff1663d0def52184836040518363ffffffff1660e01b815260040161062c929190611abc565b600060405180830381600087803b15801561064657600080fd5b505af115801561065a573d6000803e3d6000fd5b5050505050505050565b600480549050821061067557600080fd5b34600483815481106106b0577f4e487b7100000000000000000000000000000000000000000000000000000000600052603260045260246000fd5b906000526020600020906006020160020160008282546106d09190611e4a565b925050819055508073ffffffffffffffffffffffffffffffffffffffff166108fc349081150290604051600060405180830381858888f1935050505015801561071d573d6000803e3d6000fd5b507f53f38d23892c8f39da949a3f0104a3792f839931ef190898ad7535f1109b39bb826004848154811061077a577f4e487b7100000000000000000000000000000000000000000000000000000000600052603260045260246000fd5b906000526020600020906006020160010134600486815481106107c6577f4e487b7100000000000000000000000000000000000000000000000000000000600052603260045260246000fd5b906000526020600020906006020160030160009054906101000a900473ffffffffffffffffffffffffffffffffffffffff168560405161080a959493929190611d25565b60405180910390a15050565b60056020528060005260406000206000915054906101000a900460ff1681565b6060600480549050821061084957600080fd5b60048281548110610883577f4e487b7100000000000000000000000000000000000000000000000000000000600052603260045260246000fd5b906000526020600020906006020160040180548060200260200160405190810160405280929190818152602001828054801561091457602002820191906000526020600020905b8160009054906101000a900473ffffffffffffffffffffffffffffffffffffffff1673ffffffffffffffffffffffffffffffffffffffff16815260200190600101908083116108ca575b50505050509050919050565b6000600480549050821061093357600080fd5b6004828154811061096d577f4e487b7100000000000000000000000000000000000000000000000000000000600052603260045260246000fd5b9060005260206000209060060201600401805490509050919050565b6000600480549050905090565b600260009054906101000a900473ffffffffffffffffffffffffffffffffffffffff1681565b600481815481106109cc57600080fd5b90600052602060002090600602016000915090508060000154908060010180546109f590611fcc565b80601f0160208091040260200160405190810160405280929190818152602001828054610a2190611fcc565b8015610a6e5780601f10610a4357610100808354040283529160200191610a6e565b820191906000526020600020905b815481529060010190602001808311610a5157829003601f168201915b5050505050908060020154908060030160009054906101000a900473ffffffffffffffffffffffffffffffffffffffff16905084565b6000818051602081018201805184825260208301602085012081835280955050505050506000915054906101000a900460ff1681565b60606006805480602002602001604051908101604052809291908181526020018280548015610b5e57602002820191906000526020600020905b8160009054906101000a900473ffffffffffffffffffffffffffffffffffffffff1673ffffffffffffffffffffffffffffffffffffffff1681526020019060010190808311610b14575b5050505050905090565b600360009054906101000a900473ffffffffffffffffffffffffffffffffffffffff1681565b6001818051602081018201805184825260208301602085012081835280955050505050506000915054906101000a900460ff1681565b6000815111610bd257600080fd5b600060046001816001815401808255809150500390600052602060002090600602019050600480549050816000018190555081816001019080519060200190610c1c92919061155a565b50338160030160006101000a81548173ffffffffffffffffffffffffffffffffffffffff021916908373ffffffffffffffffffffffffffffffffffffffff1602179055507f75dbed2f4b10560e83c412e477ae7d3cc865ad4b331fd9d3bedb9d1caf36b149816000015483600033604051610c9a9493929190611c41565b60405180910390a15050565b6000600260009054906101000a900473ffffffffffffffffffffffffffffffffffffffff1673ffffffffffffffffffffffffffffffffffffffff166370a08231836040518263ffffffff1660e01b8152600401610d039190611aa1565b60206040518083038186803b158015610d1b57600080fd5b505afa158015610d2f573d6000803e3d6000fd5b505050506040513d601f19601f82011682018060405250810190610d53919061174c565b9050919050565b60068181548110610d6a57600080fd5b906000526020600020016000915054906101000a900473ffffffffffffffffffffffffffffffffffffffff1681565b6004805490508210610daa57600080fd5b6000828233604051602001610dc193929190611bc5565b6040516020818303038152906040529050600081604051610de29190611a8a565b908152602001604051809103902060009054906101000a900460ff16610e0757600080fd5b600260009054906101000a900473ffffffffffffffffffffffffffffffffffffffff1673ffffffffffffffffffffffffffffffffffffffff16639dc29fac8360016040518363ffffffff1660e01b8152600401610e65929190611aec565b600060405180830381600087803b158015610e7f57600080fd5b505af1158015610e93573d6000803e3d6000fd5b505050507f0c66462458ff8502ad0c2b7b30cbaf36c2f45a0c352050ec68a1380d4b623ac6838333604051610eca93929190611bc5565b60405180910390a1505050565b6004805490508310610ee857600080fd5b60048381548110610f22577f4e487b7100000000000000000000000000000000000000000000000000000000600052603260045260246000fd5b906000526020600020906006020160030160009054906101000a900473ffffffffffffffffffffffffffffffffffffffff1673ffffffffffffffffffffffffffffffffffffffff168273ffffffffffffffffffffffffffffffffffffffff161415610f8c57600080fd5b60048381548110610fc6577f4e487b7100000000000000000000000000000000000000000000000000000000600052603260045260246000fd5b9060005260206000209060060201600401829080600181540180825580915050600190039060005260206000200160009091909190916101000a81548173ffffffffffffffffffffffffffffffffffffffff021916908373ffffffffffffffffffffffffffffffffffffffff1602179055508060048481548110611073577f4e487b7100000000000000000000000000000000000000000000000000000000600052603260045260246000fd5b906000526020600020906006020160050160008473ffffffffffffffffffffffffffffffffffffffff1673ffffffffffffffffffffffffffffffffffffffff16815260200190815260200160002090805190602001906110d492919061155a565b50600560008373ffffffffffffffffffffffffffffffffffffffff1673ffffffffffffffffffffffffffffffffffffffff16815260200190815260200160002060009054906101000a900460ff166111e2576001600560008473ffffffffffffffffffffffffffffffffffffffff1673ffffffffffffffffffffffffffffffffffffffff16815260200190815260200160002060006101000a81548160ff0219169083151502179055506006829080600181540180825580915050600190039060005260206000200160009091909190916101000a81548173ffffffffffffffffffffffffffffffffffffffff021916908373ffffffffffffffffffffffffffffffffffffffff1602179055505b7fda9d9532306ca391b9faab97df298b4a4ab517627ee3457239579de84f5acbd6836004858154811061123e577f4e487b7100000000000000000000000000000000000000000000000000000000600052603260045260246000fd5b906000526020600020906006020160010160048681548110611289577f4e487b7100000000000000000000000000000000000000000000000000000000600052603260045260246000fd5b906000526020600020906006020160030160009054906101000a900473ffffffffffffffffffffffffffffffffffffffff16856040516112cc9493929190611cd9565b60405180910390a1505050565b606060006112e684610920565b116112f057600080fd5b6004838154811061132a577f4e487b7100000000000000000000000000000000000000000000000000000000600052603260045260246000fd5b906000526020600020906006020160050160008373ffffffffffffffffffffffffffffffffffffffff1673ffffffffffffffffffffffffffffffffffffffff168152602001908152602001600020805461138390611fcc565b80601f01602080910402602001604051908101604052809291908181526020018280546113af90611fcc565b80156113fc5780601f106113d1576101008083540402835291602001916113fc565b820191906000526020600020905b8154815290600101906020018083116113df57829003601f168201915b5050505050905092915050565b600480549050821061141a57600080fd5b600060048381548110611456577f4e487b7100000000000000000000000000000000000000000000000000000000600052603260045260246000fd5b906000526020600020906006020160050160008373ffffffffffffffffffffffffffffffffffffffff1673ffffffffffffffffffffffffffffffffffffffff16815260200190815260200160002080546114af90611fcc565b905014156114bc57600080fd5b60008282336040516020016114d393929190611bc5565b60405160208183030381529060405290506000816040516114f49190611a8a565b908152602001604051809103902060009054906101000a900460ff161561151a57600080fd5b7fb0e2fdeb939f7c4bd17f4b82804b0a050950d5ccaaf3aa22206ea5b80bcdb91483833360405161154d93929190611bc5565b60405180910390a1505050565b82805461156690611fcc565b90600052602060002090601f01602090048101928261158857600085556115cf565b82601f106115a157805160ff19168380011785556115cf565b828001600101855582156115cf579182015b828111156115ce5782518255916020019190600101906115b3565b5b5090506115dc91906115e0565b5090565b5b808211156115f95760008160009055506001016115e1565b5090565b600061161061160b84611da4565b611d7f565b90508281526020810184848401111561162857600080fd5b611633848285611f8a565b509392505050565b60008135905061164a816120cd565b92915050565b60008135905061165f816120e4565b92915050565b600082601f83011261167657600080fd5b81356116868482602086016115fd565b91505092915050565b60008135905061169e816120fb565b92915050565b6000815190506116b3816120fb565b92915050565b6000602082840312156116cb57600080fd5b60006116d98482850161163b565b91505092915050565b6000602082840312156116f457600080fd5b600082013567ffffffffffffffff81111561170e57600080fd5b61171a84828501611665565b91505092915050565b60006020828403121561173557600080fd5b60006117438482850161168f565b91505092915050565b60006020828403121561175e57600080fd5b600061176c848285016116a4565b91505092915050565b6000806040838503121561178857600080fd5b60006117968582860161168f565b92505060206117a78582860161163b565b9150509250929050565b600080604083850312156117c457600080fd5b60006117d28582860161168f565b92505060206117e385828601611650565b9150509250929050565b60008060006060848603121561180257600080fd5b60006118108682870161168f565b935050602061182186828701611650565b925050604084013567ffffffffffffffff81111561183e57600080fd5b61184a86828701611665565b9150509250925092565b60008060006060848603121561186957600080fd5b60006118778682870161168f565b935050602061188886828701611650565b92505060406118998682870161168f565b9150509250925092565b60006118af83836118d9565b60208301905092915050565b6118c481611efa565b82525050565b6118d381611eb2565b82525050565b6118e281611ea0565b82525050565b6118f181611ea0565b82525050565b600061190282611dfa565b61190c8185611e1d565b935061191783611dd5565b8060005b8381101561194857815161192f88826118a3565b975061193a83611e10565b92505060018101905061191b565b5085935050505092915050565b61195e81611ec4565b82525050565b61196d81611f0c565b82525050565b61197c81611f30565b82525050565b61198b81611f54565b82525050565b600061199c82611e05565b6119a68185611e2e565b93506119b6818560208601611f99565b6119bf816120bc565b840191505092915050565b60006119d582611e05565b6119df8185611e3f565b93506119ef818560208601611f99565b80840191505092915050565b60008154611a0881611fcc565b611a128186611e2e565b94506001821660008114611a2d5760018114611a3f57611a72565b60ff1983168652602086019350611a72565b611a4885611de5565b60005b83811015611a6a57815481890152600182019150602081019050611a4b565b808801955050505b50505092915050565b611a8481611ef0565b82525050565b6000611a9682846119ca565b915081905092915050565b6000602082019050611ab660008301846118e8565b92915050565b6000604082019050611ad160008301856118bb565b8181036020830152611ae38184611991565b90509392505050565b6000604082019050611b0160008301856118bb565b611b0e6020830184611a7b565b9392505050565b60006020820190508181036000830152611b2f81846118f7565b905092915050565b6000602082019050611b4c6000830184611955565b92915050565b6000602082019050611b676000830184611964565b92915050565b6000602082019050611b826000830184611973565b92915050565b60006020820190508181036000830152611ba28184611991565b905092915050565b6000602082019050611bbf6000830184611a7b565b92915050565b6000606082019050611bda6000830186611a7b565b611be760208301856118ca565b611bf460408301846118e8565b949350505050565b6000608082019050611c116000830187611a7b565b611c1e60208301866118ca565b611c2b60408301856118e8565b611c386060830184611a7b565b95945050505050565b6000608082019050611c566000830187611a7b565b8181036020830152611c688186611991565b9050611c776040830185611982565b611c8460608301846118e8565b95945050505050565b6000608082019050611ca26000830187611a7b565b8181036020830152611cb48186611991565b9050611cc36040830185611a7b565b611cd060608301846118e8565b95945050505050565b6000608082019050611cee6000830187611a7b565b8181036020830152611d0081866119fb565b9050611d0f60408301856118e8565b611d1c60608301846118ca565b95945050505050565b600060a082019050611d3a6000830188611a7b565b8181036020830152611d4c81876119fb565b9050611d5b6040830186611a7b565b611d6860608301856118e8565b611d7560808301846118ca565b9695505050505050565b6000611d89611d9a565b9050611d958282611ffe565b919050565b6000604051905090565b600067ffffffffffffffff821115611dbf57611dbe61208d565b5b611dc8826120bc565b9050602081019050919050565b6000819050602082019050919050565b60008190508160005260206000209050919050565b600081519050919050565b600081519050919050565b6000602082019050919050565b600082825260208201905092915050565b600082825260208201905092915050565b600081905092915050565b6000611e5582611ef0565b9150611e6083611ef0565b9250827fffffffffffffffffffffffffffffffffffffffffffffffffffffffffffffffff03821115611e9557611e9461202f565b5b828201905092915050565b6000611eab82611ed0565b9050919050565b6000611ebd82611ed0565b9050919050565b60008115159050919050565b600073ffffffffffffffffffffffffffffffffffffffff82169050919050565b6000819050919050565b6000611f0582611f66565b9050919050565b6000611f1782611f1e565b9050919050565b6000611f2982611ed0565b9050919050565b6000611f3b82611f42565b9050919050565b6000611f4d82611ed0565b9050919050565b6000611f5f82611ef0565b9050919050565b6000611f7182611f78565b9050919050565b6000611f8382611ed0565b9050919050565b82818337600083830152505050565b60005b83811015611fb7578082015181840152602081019050611f9c565b83811115611fc6576000848401525b50505050565b60006002820490506001821680611fe457607f821691505b60208210811415611ff857611ff761205e565b5b50919050565b612007826120bc565b810181811067ffffffffffffffff821117156120265761202561208d565b5b80604052505050565b7f4e487b7100000000000000000000000000000000000000000000000000000000600052601160045260246000fd5b7f4e487b7100000000000000000000000000000000000000000000000000000000600052602260045260246000fd5b7f4e487b7100000000000000000000000000000000000000000000000000000000600052604160045260246000fd5b6000601f19601f8301169050919050565b6120d681611ea0565b81146120e157600080fd5b50565b6120ed81611eb2565b81146120f857600080fd5b50565b61210481611ef0565b811461210f57600080fd5b5056fea26469706673582212209422b8f48c50ca250d1609319795795803a53809f32175a2d3f2ab9de444ced764736f6c63430008010033",
  "immutableReferences": {},
  "source": "pragma solidity ^0.8.0;\n\nimport \"./ReputationToken.sol\";\nimport \"./AwardsToken.sol\";\n\nuint constant REPUTATION = 1;\n\ncontract Rewards {\n    mapping(string => bool) public hasGivenReputation;\n    mapping(string => bool) public hasGivenAward;\n    ReputationToken public reputationtoken;\n    AwardsToken public awardsToken;\n\n    constructor(ReputationToken _reputationToken, AwardsToken _awardsToken) {\n        reputationtoken = _reputationToken;\n        awardsToken = _awardsToken;\n    }\n\n    //TODO: asociar reviews, registrar reviewer\n\n    struct Paper {\n        uint id;\n        string title;\n        uint tipAmount;\n        address author;\n        address[] reviewers;\n        mapping(address => string) reviews; //TODO update to array of strings\n    }\n\n    Paper[] public papers;\n    mapping(address => bool) public reviewerExists;\n    address[] public reviewers;\n\n    event PaperCreated(\n        uint id,\n        string title,\n        uint tipAmount,\n        address author\n    );\n\n    event ReviewerAdded(\n        uint id,\n        string title,\n        address author,\n        address payable reviewer\n    );\n\n    event ReviewerTipped(\n        uint id,\n        string title,\n        uint tipAmount,\n        address author,\n        address payable reviewer\n    );\n\n    event ReputationGiven(\n        uint id,\n        address payable reviewer,\n        address user\n    );\n\n    event ReputationTaken(\n        uint id,\n        address payable reviewer,\n        address user\n    );\n\n    function createPaper(string memory _title) public {\n        require(bytes(_title).length > 0);\n        Paper storage paper = papers.push();\n        paper.id = papers.length;\n        paper.title = _title;\n        paper.author = msg.sender;\n        emit PaperCreated(paper.id, _title, 0, msg.sender);\n    }\n\n    function addReviewer(uint _id, address payable _reviewer, string memory review) public {\n        require(_id < papers.length);\n        require(_reviewer != papers[_id].author);\n        papers[_id].reviewers.push(_reviewer);\n        papers[_id].reviews[_reviewer] = review;\n        \n        if(!reviewerExists[_reviewer]){\n            reviewerExists[_reviewer] = true;\n            reviewers.push(_reviewer);\n        }\n\n        emit ReviewerAdded(_id, papers[_id].title, papers[_id].author, _reviewer);\n    }\n\n    function tipReviewer(uint _id, address payable _reviewer) public payable{\n        require(_id < papers.length);\n\n        papers[_id].tipAmount += msg.value;\n        _reviewer.transfer(msg.value);\n\n        emit ReviewerTipped(_id, papers[_id].title, msg.value, papers[_id].author, _reviewer);\n    }\n\n    function giveReputation(uint _id, address payable _reviewer) public payable{\n        require(_id < papers.length);\n        require(bytes(papers[_id].reviews[_reviewer]).length != 0);\n        string memory _hash = string(abi.encode(_id, _reviewer, msg.sender));\n        require(!hasGivenReputation[_hash]);\n        // reputationtoken.mint(_reviewer, REPUTATION);\n\n        emit ReputationGiven(_id,  _reviewer, msg.sender);\n    }\n\n    function undoGiveReputation(uint _id, address payable _reviewer) public payable{\n        require(_id < papers.length);\n        string memory _hash = string(abi.encode(_id, _reviewer, msg.sender));\n        require(hasGivenReputation[_hash]);\n        reputationtoken.burn(_reviewer, REPUTATION);\n\n        emit ReputationTaken(_id,  _reviewer, msg.sender);\n    }\n\n    function getReputation(address _reviewer) public view returns (uint256) {\n        return reputationtoken.balanceOf(_reviewer);\n    }\n\n    //TODO test and event\n    function giveAward(uint _id, address payable _reviewer, uint _awardId ) public payable{\n        require(_id < papers.length);\n        require(_awardId < 4);\n        require(bytes(papers[_id].reviews[_reviewer]).length != 0);\n        string memory _hash = string(abi.encode(_id, _reviewer, msg.sender, _awardId));\n        require(!hasGivenAward[_hash]);\n        awardsToken.mint(_reviewer, _hash);\n\n        //emit ReputationGiven(_id,  _reviewer, msg.sender);\n    }\n\n    function getReviewers() public view returns (address [] memory){\n        return reviewers;\n    }\n    function getPaperReviewers(uint _id) public view returns (address [] memory){\n        require(_id < papers.length);\n        return papers[_id].reviewers;\n    }\n\n    function getPaperReviewsByReviewer(uint _id, address _reviewer) public view returns (string memory){\n        require(getPaperReviewerCount(_id) > 0);\n        return papers[_id].reviews[_reviewer];\n    }\n\n    function getPaperCount() public view returns (uint256) {\n        return papers.length;\n    }\n\n    function getPaperReviewerCount(uint _id) public view returns (uint256) {\n        require(_id < papers.length);\n        return papers[_id].reviewers.length;\n    }\n}",
  "sourcePath": "/home/dani/bk/Rewards/contracts/Rewards.sol",
  "compiler": {
    "name": "solc",
    "version": "0.8.1+commit.df193b15.Emscripten.clang"
  },
  "schemaVersion": "3.3.3",
  "updatedAt": "2021-04-18T18:06:21.640Z",
  "networkType": "ethereum",
  "devdoc": {
    "kind": "dev",
    "methods": {},
    "version": 1
  },
  "userdoc": {
    "kind": "user",
    "methods": {},
    "version": 1
  }
}