{
  "contractName": "Rewards",
  "abi": [
    {
      "anonymous": false,
      "inputs": [
        {
          "indexed": false,
          "internalType": "uint256",
          "name": "id",
          "type": "uint256"
        },
        {
          "indexed": false,
          "internalType": "string",
          "name": "title",
          "type": "string"
        },
        {
          "indexed": false,
          "internalType": "uint256",
          "name": "tipAmount",
          "type": "uint256"
        },
        {
          "indexed": false,
          "internalType": "address",
          "name": "author",
          "type": "address"
        },
        {
          "indexed": false,
          "internalType": "address payable",
          "name": "reviewer",
          "type": "address"
        }
      ],
      "name": "PaperCreated",
      "type": "event"
    },
    {
      "anonymous": false,
      "inputs": [
        {
          "indexed": false,
          "internalType": "uint256",
          "name": "id",
          "type": "uint256"
        },
        {
          "indexed": false,
          "internalType": "string",
          "name": "title",
          "type": "string"
        },
        {
          "indexed": false,
          "internalType": "uint256",
          "name": "tipAmount",
          "type": "uint256"
        },
        {
          "indexed": false,
          "internalType": "address",
          "name": "author",
          "type": "address"
        },
        {
          "indexed": false,
          "internalType": "address payable",
          "name": "reviewer",
          "type": "address"
        }
      ],
      "name": "PaperTipped",
      "type": "event"
    },
    {
      "inputs": [],
      "name": "paperCount",
      "outputs": [
        {
          "internalType": "uint256",
          "name": "",
          "type": "uint256"
        }
      ],
      "stateMutability": "view",
      "type": "function",
      "constant": true
    },
    {
      "inputs": [
        {
          "internalType": "uint256",
          "name": "",
          "type": "uint256"
        }
      ],
      "name": "papers",
      "outputs": [
        {
          "internalType": "uint256",
          "name": "id",
          "type": "uint256"
        },
        {
          "internalType": "string",
          "name": "title",
          "type": "string"
        },
        {
          "internalType": "uint256",
          "name": "tipAmount",
          "type": "uint256"
        },
        {
          "internalType": "address",
          "name": "author",
          "type": "address"
        },
        {
          "internalType": "address payable",
          "name": "reviewer",
          "type": "address"
        }
      ],
      "stateMutability": "view",
      "type": "function",
      "constant": true
    },
    {
      "inputs": [
        {
          "internalType": "string",
          "name": "_title",
          "type": "string"
        },
        {
          "internalType": "address payable",
          "name": "_reviewer",
          "type": "address"
        }
      ],
      "name": "createPaper",
      "outputs": [],
      "stateMutability": "nonpayable",
      "type": "function"
    },
    {
      "inputs": [
        {
          "internalType": "uint256",
          "name": "_id",
          "type": "uint256"
        }
      ],
      "name": "tipPaper",
      "outputs": [],
      "stateMutability": "payable",
      "type": "function",
      "payable": true
    }
  ],
  "bytecode": "0x60806040526000805534801561001457600080fd5b50610cb1806100246000396000f3fe60806040526004361061003f5760003560e01c8063476e0327146100445780635e775a2714610060578063a56c2cb9146100a1578063c2be0b50146100cc575b600080fd5b61005e6004803603810190610059919061082c565b6100f5565b005b34801561006c57600080fd5b506100876004803603810190610082919061082c565b610408565b60405161009895949392919061093f565b60405180910390f35b3480156100ad57600080fd5b506100b6610506565b6040516100c391906108ca565b60405180910390f35b3480156100d857600080fd5b506100f360048036038101906100ee91906107d8565b61050c565b005b600054811061010357600080fd5b6000600160008381526020019081526020016000206040518060a00160405290816000820154815260200160018201805461013d90610b03565b80601f016020809104026020016040519081016040528092919081815260200182805461016990610b03565b80156101b65780601f1061018b576101008083540402835291602001916101b6565b820191906000526020600020905b81548152906001019060200180831161019957829003601f168201915b50505050508152602001600282015481526020016003820160009054906101000a900473ffffffffffffffffffffffffffffffffffffffff1673ffffffffffffffffffffffffffffffffffffffff1673ffffffffffffffffffffffffffffffffffffffff1681526020016004820160009054906101000a900473ffffffffffffffffffffffffffffffffffffffff1673ffffffffffffffffffffffffffffffffffffffff1673ffffffffffffffffffffffffffffffffffffffff1681525050905060008160800151905034826040018181516102929190610a0b565b915081815250508073ffffffffffffffffffffffffffffffffffffffff166108fc349081150290604051600060405180830381858888f193505050501580156102df573d6000803e3d6000fd5b50816001600085815260200190815260200160002060008201518160000155602082015181600101908051906020019061031a9291906106a3565b506040820151816002015560608201518160030160006101000a81548173ffffffffffffffffffffffffffffffffffffffff021916908373ffffffffffffffffffffffffffffffffffffffff16021790555060808201518160040160006101000a81548173ffffffffffffffffffffffffffffffffffffffff021916908373ffffffffffffffffffffffffffffffffffffffff1602179055509050507fdb8dd63a5a238451c4470286cc17701aecec5a43e2a186a28fea53ae8bb380f2600054836020015184604001518560600151856040516103fb95949392919061093f565b60405180910390a1505050565b600160205280600052604060002060009150905080600001549080600101805461043190610b03565b80601f016020809104026020016040519081016040528092919081815260200182805461045d90610b03565b80156104aa5780601f1061047f576101008083540402835291602001916104aa565b820191906000526020600020905b81548152906001019060200180831161048d57829003601f168201915b5050505050908060020154908060030160009054906101000a900473ffffffffffffffffffffffffffffffffffffffff16908060040160009054906101000a900473ffffffffffffffffffffffffffffffffffffffff16905085565b60005481565b600082511161051a57600080fd5b6040518060a001604052806000548152602001838152602001600081526020013373ffffffffffffffffffffffffffffffffffffffff1681526020018273ffffffffffffffffffffffffffffffffffffffff1681525060016000805481526020019081526020016000206000820151816000015560208201518160010190805190602001906105aa9291906106a3565b506040820151816002015560608201518160030160006101000a81548173ffffffffffffffffffffffffffffffffffffffff021916908373ffffffffffffffffffffffffffffffffffffffff16021790555060808201518160040160006101000a81548173ffffffffffffffffffffffffffffffffffffffff021916908373ffffffffffffffffffffffffffffffffffffffff1602179055509050507fd9d0d001c6807db086c0bd0e5cbcd0a0caccdc7dea633917d21d634c8b19963c60005483600033856040516106809594939291906108e5565b60405180910390a160008081548092919061069a90610b66565b91905055505050565b8280546106af90610b03565b90600052602060002090601f0160209004810192826106d15760008555610718565b82601f106106ea57805160ff1916838001178555610718565b82800160010185558215610718579182015b828111156107175782518255916020019190600101906106fc565b5b5090506107259190610729565b5090565b5b8082111561074257600081600090555060010161072a565b5090565b6000610759610754846109be565b610999565b90508281526020810184848401111561077157600080fd5b61077c848285610ac1565b509392505050565b60008135905061079381610c4d565b92915050565b600082601f8301126107aa57600080fd5b81356107ba848260208601610746565b91505092915050565b6000813590506107d281610c64565b92915050565b600080604083850312156107eb57600080fd5b600083013567ffffffffffffffff81111561080557600080fd5b61081185828601610799565b925050602061082285828601610784565b9150509250929050565b60006020828403121561083e57600080fd5b600061084c848285016107c3565b91505092915050565b61085e81610a73565b82525050565b61086d81610a61565b82525050565b61087c81610aaf565b82525050565b600061088d826109ef565b61089781856109fa565b93506108a7818560208601610ad0565b6108b081610c3c565b840191505092915050565b6108c481610aa5565b82525050565b60006020820190506108df60008301846108bb565b92915050565b600060a0820190506108fa60008301886108bb565b818103602083015261090c8187610882565b905061091b6040830186610873565b6109286060830185610864565b6109356080830184610855565b9695505050505050565b600060a08201905061095460008301886108bb565b81810360208301526109668187610882565b905061097560408301866108bb565b6109826060830185610864565b61098f6080830184610855565b9695505050505050565b60006109a36109b4565b90506109af8282610b35565b919050565b6000604051905090565b600067ffffffffffffffff8211156109d9576109d8610c0d565b5b6109e282610c3c565b9050602081019050919050565b600081519050919050565b600082825260208201905092915050565b6000610a1682610aa5565b9150610a2183610aa5565b9250827fffffffffffffffffffffffffffffffffffffffffffffffffffffffffffffffff03821115610a5657610a55610baf565b5b828201905092915050565b6000610a6c82610a85565b9050919050565b6000610a7e82610a85565b9050919050565b600073ffffffffffffffffffffffffffffffffffffffff82169050919050565b6000819050919050565b6000610aba82610aa5565b9050919050565b82818337600083830152505050565b60005b83811015610aee578082015181840152602081019050610ad3565b83811115610afd576000848401525b50505050565b60006002820490506001821680610b1b57607f821691505b60208210811415610b2f57610b2e610bde565b5b50919050565b610b3e82610c3c565b810181811067ffffffffffffffff82111715610b5d57610b5c610c0d565b5b80604052505050565b6000610b7182610aa5565b91507fffffffffffffffffffffffffffffffffffffffffffffffffffffffffffffffff821415610ba457610ba3610baf565b5b600182019050919050565b7f4e487b7100000000000000000000000000000000000000000000000000000000600052601160045260246000fd5b7f4e487b7100000000000000000000000000000000000000000000000000000000600052602260045260246000fd5b7f4e487b7100000000000000000000000000000000000000000000000000000000600052604160045260246000fd5b6000601f19601f8301169050919050565b610c5681610a73565b8114610c6157600080fd5b50565b610c6d81610aa5565b8114610c7857600080fd5b5056fea26469706673582212208f1ef2dd7c605d92ad85bc9cd0da3b0bb61d529c637c93caa7d75253be83a89d64736f6c63430008010033",
  "immutableReferences": {},
  "source": "pragma solidity ^0.8.0;\n\ncontract Rewards {\n    uint public paperCount = 0;\n    mapping(uint => Paper) public papers;\n\n\n    struct Paper {\n        uint id;\n        string title;\n        uint tipAmount;\n        address author;\n        address payable reviewer;\n    }\n\n    event PaperCreated(\n        uint id,\n        string title,\n        uint tipAmount,\n        address author,\n        address payable reviewer\n    );\n\n    event PaperTipped(\n        uint id,\n        string title,\n        uint tipAmount,\n        address author,\n        address payable reviewer\n    );\n\n    function createPaper(string memory _title, address payable _reviewer) public {\n        require(bytes(_title).length > 0);\n        papers[paperCount] = Paper(paperCount, _title, 0, msg.sender, _reviewer);\n        emit PaperCreated(paperCount, _title, 0, msg.sender, _reviewer);\n        paperCount++;\n    }\n\n    function tipPaper(uint _id) public payable{\n        require(_id < paperCount);\n        Paper memory _paper = papers[_id];\n\n        address payable _reviewer = _paper.reviewer;\n        _paper.tipAmount += msg.value;\n\n        _reviewer.transfer(msg.value);\n\n        papers[_id] = _paper;\n        emit PaperTipped(paperCount, _paper.title, _paper.tipAmount, _paper.author, _reviewer);\n    }\n}",
  "sourcePath": "/home/dani/bk/Rewards/contracts/Rewards.sol",
  "compiler": {
    "name": "solc",
    "version": "0.8.1+commit.df193b15.Emscripten.clang"
  },
  "schemaVersion": "3.3.3",
  "updatedAt": "2021-02-10T16:15:37.322Z",
  "networkType": "ethereum",
  "devdoc": {
    "kind": "dev",
    "methods": {},
    "version": 1
  },
  "userdoc": {
    "kind": "user",
    "methods": {},
    "version": 1
  }
}