{
  "contractName": "Rewards",
  "abi": [
    {
      "inputs": [
        {
          "internalType": "contract ReputationToken",
          "name": "_reputationToken",
          "type": "address"
        },
        {
          "internalType": "contract AwardsToken",
          "name": "_awardsToken",
          "type": "address"
        }
      ],
      "stateMutability": "nonpayable",
      "type": "constructor"
    },
    {
      "anonymous": false,
      "inputs": [
        {
          "indexed": false,
          "internalType": "uint256",
          "name": "id",
          "type": "uint256"
        },
        {
          "indexed": false,
          "internalType": "address payable",
          "name": "reviewer",
          "type": "address"
        },
        {
          "indexed": false,
          "internalType": "address",
          "name": "user",
          "type": "address"
        },
        {
          "indexed": false,
          "internalType": "uint256",
          "name": "awardId",
          "type": "uint256"
        }
      ],
      "name": "AwardGiven",
      "type": "event"
    },
    {
      "anonymous": false,
      "inputs": [
        {
          "indexed": false,
          "internalType": "uint256",
          "name": "id",
          "type": "uint256"
        },
        {
          "indexed": false,
          "internalType": "string",
          "name": "title",
          "type": "string"
        },
        {
          "indexed": false,
          "internalType": "uint256",
          "name": "tipAmount",
          "type": "uint256"
        },
        {
          "indexed": false,
          "internalType": "address",
          "name": "author",
          "type": "address"
        }
      ],
      "name": "PaperCreated",
      "type": "event"
    },
    {
      "anonymous": false,
      "inputs": [
        {
          "indexed": false,
          "internalType": "uint256",
          "name": "id",
          "type": "uint256"
        },
        {
          "indexed": false,
          "internalType": "address payable",
          "name": "reviewer",
          "type": "address"
        },
        {
          "indexed": false,
          "internalType": "address",
          "name": "user",
          "type": "address"
        }
      ],
      "name": "ReputationGiven",
      "type": "event"
    },
    {
      "anonymous": false,
      "inputs": [
        {
          "indexed": false,
          "internalType": "uint256",
          "name": "id",
          "type": "uint256"
        },
        {
          "indexed": false,
          "internalType": "address payable",
          "name": "reviewer",
          "type": "address"
        },
        {
          "indexed": false,
          "internalType": "address",
          "name": "user",
          "type": "address"
        }
      ],
      "name": "ReputationTaken",
      "type": "event"
    },
    {
      "anonymous": false,
      "inputs": [
        {
          "indexed": false,
          "internalType": "uint256",
          "name": "id",
          "type": "uint256"
        },
        {
          "indexed": false,
          "internalType": "string",
          "name": "title",
          "type": "string"
        },
        {
          "indexed": false,
          "internalType": "address",
          "name": "author",
          "type": "address"
        },
        {
          "indexed": false,
          "internalType": "address payable",
          "name": "reviewer",
          "type": "address"
        }
      ],
      "name": "ReviewerAdded",
      "type": "event"
    },
    {
      "anonymous": false,
      "inputs": [
        {
          "indexed": false,
          "internalType": "uint256",
          "name": "id",
          "type": "uint256"
        },
        {
          "indexed": false,
          "internalType": "string",
          "name": "title",
          "type": "string"
        },
        {
          "indexed": false,
          "internalType": "uint256",
          "name": "tipAmount",
          "type": "uint256"
        },
        {
          "indexed": false,
          "internalType": "address",
          "name": "author",
          "type": "address"
        },
        {
          "indexed": false,
          "internalType": "address payable",
          "name": "reviewer",
          "type": "address"
        }
      ],
      "name": "ReviewerTipped",
      "type": "event"
    },
    {
      "inputs": [],
      "name": "awardsToken",
      "outputs": [
        {
          "internalType": "contract AwardsToken",
          "name": "",
          "type": "address"
        }
      ],
      "stateMutability": "view",
      "type": "function",
      "constant": true
    },
    {
      "inputs": [
        {
          "internalType": "string",
          "name": "",
          "type": "string"
        }
      ],
      "name": "hasGivenAward",
      "outputs": [
        {
          "internalType": "bool",
          "name": "",
          "type": "bool"
        }
      ],
      "stateMutability": "view",
      "type": "function",
      "constant": true
    },
    {
      "inputs": [
        {
          "internalType": "string",
          "name": "",
          "type": "string"
        }
      ],
      "name": "hasGivenReputation",
      "outputs": [
        {
          "internalType": "bool",
          "name": "",
          "type": "bool"
        }
      ],
      "stateMutability": "view",
      "type": "function",
      "constant": true
    },
    {
      "inputs": [
        {
          "internalType": "uint256",
          "name": "",
          "type": "uint256"
        }
      ],
      "name": "papers",
      "outputs": [
        {
          "internalType": "uint256",
          "name": "id",
          "type": "uint256"
        },
        {
          "internalType": "string",
          "name": "title",
          "type": "string"
        },
        {
          "internalType": "uint256",
          "name": "tipAmount",
          "type": "uint256"
        },
        {
          "internalType": "address",
          "name": "author",
          "type": "address"
        }
      ],
      "stateMutability": "view",
      "type": "function",
      "constant": true
    },
    {
      "inputs": [],
      "name": "reputationtoken",
      "outputs": [
        {
          "internalType": "contract ReputationToken",
          "name": "",
          "type": "address"
        }
      ],
      "stateMutability": "view",
      "type": "function",
      "constant": true
    },
    {
      "inputs": [
        {
          "internalType": "address",
          "name": "",
          "type": "address"
        }
      ],
      "name": "reviewerExists",
      "outputs": [
        {
          "internalType": "bool",
          "name": "",
          "type": "bool"
        }
      ],
      "stateMutability": "view",
      "type": "function",
      "constant": true
    },
    {
      "inputs": [
        {
          "internalType": "uint256",
          "name": "",
          "type": "uint256"
        }
      ],
      "name": "reviewers",
      "outputs": [
        {
          "internalType": "address",
          "name": "",
          "type": "address"
        }
      ],
      "stateMutability": "view",
      "type": "function",
      "constant": true
    },
    {
      "inputs": [
        {
          "internalType": "string",
          "name": "_title",
          "type": "string"
        }
      ],
      "name": "createPaper",
      "outputs": [],
      "stateMutability": "nonpayable",
      "type": "function"
    },
    {
      "inputs": [
        {
          "internalType": "uint256",
          "name": "_id",
          "type": "uint256"
        },
        {
          "internalType": "address payable",
          "name": "_reviewer",
          "type": "address"
        },
        {
          "internalType": "string",
          "name": "review",
          "type": "string"
        }
      ],
      "name": "addReviewer",
      "outputs": [],
      "stateMutability": "nonpayable",
      "type": "function"
    },
    {
      "inputs": [
        {
          "internalType": "uint256",
          "name": "_id",
          "type": "uint256"
        },
        {
          "internalType": "address payable",
          "name": "_reviewer",
          "type": "address"
        }
      ],
      "name": "tipReviewer",
      "outputs": [],
      "stateMutability": "payable",
      "type": "function",
      "payable": true
    },
    {
      "inputs": [
        {
          "internalType": "uint256",
          "name": "_id",
          "type": "uint256"
        },
        {
          "internalType": "address payable",
          "name": "_reviewer",
          "type": "address"
        }
      ],
      "name": "giveReputation",
      "outputs": [],
      "stateMutability": "payable",
      "type": "function",
      "payable": true
    },
    {
      "inputs": [
        {
          "internalType": "uint256",
          "name": "_id",
          "type": "uint256"
        },
        {
          "internalType": "address payable",
          "name": "_reviewer",
          "type": "address"
        }
      ],
      "name": "undoGiveReputation",
      "outputs": [],
      "stateMutability": "payable",
      "type": "function",
      "payable": true
    },
    {
      "inputs": [
        {
          "internalType": "address",
          "name": "_reviewer",
          "type": "address"
        }
      ],
      "name": "getReputation",
      "outputs": [
        {
          "internalType": "uint256",
          "name": "",
          "type": "uint256"
        }
      ],
      "stateMutability": "view",
      "type": "function",
      "constant": true
    },
    {
      "inputs": [
        {
          "internalType": "uint256",
          "name": "_id",
          "type": "uint256"
        },
        {
          "internalType": "address payable",
          "name": "_reviewer",
          "type": "address"
        },
        {
          "internalType": "uint256",
          "name": "_awardId",
          "type": "uint256"
        }
      ],
      "name": "giveAward",
      "outputs": [],
      "stateMutability": "payable",
      "type": "function",
      "payable": true
    },
    {
      "inputs": [
        {
          "internalType": "address",
          "name": "_id",
          "type": "address"
        }
      ],
      "name": "getAwardsBalance",
      "outputs": [
        {
          "internalType": "uint256",
          "name": "",
          "type": "uint256"
        }
      ],
      "stateMutability": "view",
      "type": "function",
      "constant": true
    },
    {
      "inputs": [],
      "name": "getReviewers",
      "outputs": [
        {
          "internalType": "address[]",
          "name": "",
          "type": "address[]"
        }
      ],
      "stateMutability": "view",
      "type": "function",
      "constant": true
    },
    {
      "inputs": [
        {
          "internalType": "uint256",
          "name": "_id",
          "type": "uint256"
        }
      ],
      "name": "getPaperReviewers",
      "outputs": [
        {
          "internalType": "address[]",
          "name": "",
          "type": "address[]"
        }
      ],
      "stateMutability": "view",
      "type": "function",
      "constant": true
    },
    {
      "inputs": [
        {
          "internalType": "uint256",
          "name": "_id",
          "type": "uint256"
        },
        {
          "internalType": "address",
          "name": "_reviewer",
          "type": "address"
        }
      ],
      "name": "getPaperReviewsByReviewer",
      "outputs": [
        {
          "internalType": "string",
          "name": "",
          "type": "string"
        }
      ],
      "stateMutability": "view",
      "type": "function",
      "constant": true
    },
    {
      "inputs": [],
      "name": "getPaperCount",
      "outputs": [
        {
          "internalType": "uint256",
          "name": "",
          "type": "uint256"
        }
      ],
      "stateMutability": "view",
      "type": "function",
      "constant": true
    },
    {
      "inputs": [
        {
          "internalType": "uint256",
          "name": "_id",
          "type": "uint256"
        }
      ],
      "name": "getPaperReviewerCount",
      "outputs": [
        {
          "internalType": "uint256",
          "name": "",
          "type": "uint256"
        }
      ],
      "stateMutability": "view",
      "type": "function",
      "constant": true
    }
  ],
  "bytecode": "0x60806040523480156200001157600080fd5b506040516200255a3803806200255a8339818101604052810190620000379190620000ef565b81600260006101000a81548173ffffffffffffffffffffffffffffffffffffffff021916908373ffffffffffffffffffffffffffffffffffffffff16021790555080600360006101000a81548173ffffffffffffffffffffffffffffffffffffffff021916908373ffffffffffffffffffffffffffffffffffffffff1602179055505050620001c0565b600081519050620000d2816200018c565b92915050565b600081519050620000e981620001a6565b92915050565b600080604083850312156200010357600080fd5b60006200011385828601620000d8565b92505060206200012685828601620000c1565b9150509250929050565b60006200013d826200016c565b9050919050565b6000620001518262000130565b9050919050565b6000620001658262000130565b9050919050565b600073ffffffffffffffffffffffffffffffffffffffff82169050919050565b620001978162000144565b8114620001a357600080fd5b50565b620001b18162000158565b8114620001bd57600080fd5b50565b61238a80620001d06000396000f3fe60806040526004361061011f5760003560e01c806375a87643116100a05780639cc616f6116100645780639cc616f61461041c578063cc87c91e14610459578063dda7247b14610475578063df4d69341461049e578063ef5ddf78146104db5761011f565b806375a87643146103235780638c9b5e631461034e5780638e8814981461037957806390a10f74146103b65780639c89a0e2146103df5761011f565b8063316ed42e116100e7578063316ed42e146102135780633d7e97f2146102505780635c34e8981461027b5780635e775a27146102a657806361a5d6a8146102e65761011f565b806305a378a2146101245780631789064f14610140578063249fd94b1461015c57806327167bd514610199578063305dd39d146101d6575b600080fd5b61013e60048036038101906101399190611a96565b6104f7565b005b61015a600480360381019061015591906119f3565b610762565b005b34801561016857600080fd5b50610183600480360381019061017e91906118fb565b610914565b6040516101909190611dec565b60405180910390f35b3480156101a557600080fd5b506101c060048036038101906101bb91906118fb565b6109c8565b6040516101cd9190611d79565b60405180910390f35b3480156101e257600080fd5b506101fd60048036038101906101f89190611965565b6109e8565b60405161020a9190611d57565b60405180910390f35b34801561021f57600080fd5b5061023a60048036038101906102359190611965565b610ad2565b6040516102479190611dec565b60405180910390f35b34801561025c57600080fd5b50610265610b3b565b6040516102729190611dec565b60405180910390f35b34801561028757600080fd5b50610290610b48565b60405161029d9190611daf565b60405180910390f35b3480156102b257600080fd5b506102cd60048036038101906102c89190611965565b610b6e565b6040516102dd9493929190611ecf565b60405180910390f35b3480156102f257600080fd5b5061030d60048036038101906103089190611924565b610c56565b60405161031a9190611d79565b60405180910390f35b34801561032f57600080fd5b50610338610c8c565b6040516103459190611d57565b60405180910390f35b34801561035a57600080fd5b50610363610d1a565b6040516103709190611d94565b60405180910390f35b34801561038557600080fd5b506103a0600480360381019061039b9190611924565b610d40565b6040516103ad9190611d79565b60405180910390f35b3480156103c257600080fd5b506103dd60048036038101906103d89190611924565b610d76565b005b3480156103eb57600080fd5b50610406600480360381019061040191906118fb565b610e58565b6040516104139190611dec565b60405180910390f35b34801561042857600080fd5b50610443600480360381019061043e9190611965565b610f0c565b6040516104509190611ce3565b60405180910390f35b610473600480360381019061046e91906119f3565b610f4b565b005b34801561048157600080fd5b5061049c60048036038101906104979190611a2f565b611089565b005b3480156104aa57600080fd5b506104c560048036038101906104c091906119b7565b61148b565b6040516104d29190611dca565b60405180910390f35b6104f560048036038101906104f091906119f3565b6115bb565b005b600480549050831061050857600080fd5b6004811061051557600080fd5b600060048481548110610551577f4e487b7100000000000000000000000000000000000000000000000000000000600052603260045260246000fd5b906000526020600020906006020160050160008473ffffffffffffffffffffffffffffffffffffffff1673ffffffffffffffffffffffffffffffffffffffff16815260200190815260200160002080546105aa9061220e565b905014156105b757600080fd5b6000838333846040516020016105d09493929190611e3e565b60405160208183030381529060405290506001816040516105f19190611ccc565b908152602001604051809103902060009054906101000a900460ff161561061757600080fd5b600360009054906101000a900473ffffffffffffffffffffffffffffffffffffffff1673ffffffffffffffffffffffffffffffffffffffff1663d0def52184836040518363ffffffff1660e01b8152600401610674929190611cfe565b600060405180830381600087803b15801561068e57600080fd5b505af11580156106a2573d6000803e3d6000fd5b50505050600760008473ffffffffffffffffffffffffffffffffffffffff1673ffffffffffffffffffffffffffffffffffffffff1681526020019081526020016000208190806001815401808255809150506001900390600052602060002001600090919091909150908051906020019061071e92919061179c565b507f07128538c880e3e0420db7ffeeed2ec2c8c21674d9ff7401f55a25be56e46bae848433856040516107549493929190611e3e565b60405180910390a150505050565b600480549050821061077357600080fd5b34600483815481106107ae577f4e487b7100000000000000000000000000000000000000000000000000000000600052603260045260246000fd5b906000526020600020906006020160020160008282546107ce919061208c565b925050819055508073ffffffffffffffffffffffffffffffffffffffff166108fc349081150290604051600060405180830381858888f1935050505015801561081b573d6000803e3d6000fd5b507f53f38d23892c8f39da949a3f0104a3792f839931ef190898ad7535f1109b39bb8260048481548110610878577f4e487b7100000000000000000000000000000000000000000000000000000000600052603260045260246000fd5b906000526020600020906006020160010134600486815481106108c4577f4e487b7100000000000000000000000000000000000000000000000000000000600052603260045260246000fd5b906000526020600020906006020160030160009054906101000a900473ffffffffffffffffffffffffffffffffffffffff1685604051610908959493929190611f67565b60405180910390a15050565b6000600360009054906101000a900473ffffffffffffffffffffffffffffffffffffffff1673ffffffffffffffffffffffffffffffffffffffff166370a08231836040518263ffffffff1660e01b81526004016109719190611ce3565b60206040518083038186803b15801561098957600080fd5b505afa15801561099d573d6000803e3d6000fd5b505050506040513d601f19601f820116820180604052508101906109c1919061198e565b9050919050565b60056020528060005260406000206000915054906101000a900460ff1681565b606060048054905082106109fb57600080fd5b60048281548110610a35577f4e487b7100000000000000000000000000000000000000000000000000000000600052603260045260246000fd5b9060005260206000209060060201600401805480602002602001604051908101604052809291908181526020018280548015610ac657602002820191906000526020600020905b8160009054906101000a900473ffffffffffffffffffffffffffffffffffffffff1673ffffffffffffffffffffffffffffffffffffffff1681526020019060010190808311610a7c575b50505050509050919050565b60006004805490508210610ae557600080fd5b60048281548110610b1f577f4e487b7100000000000000000000000000000000000000000000000000000000600052603260045260246000fd5b9060005260206000209060060201600401805490509050919050565b6000600480549050905090565b600260009054906101000a900473ffffffffffffffffffffffffffffffffffffffff1681565b60048181548110610b7e57600080fd5b9060005260206000209060060201600091509050806000015490806001018054610ba79061220e565b80601f0160208091040260200160405190810160405280929190818152602001828054610bd39061220e565b8015610c205780601f10610bf557610100808354040283529160200191610c20565b820191906000526020600020905b815481529060010190602001808311610c0357829003601f168201915b5050505050908060020154908060030160009054906101000a900473ffffffffffffffffffffffffffffffffffffffff16905084565b6000818051602081018201805184825260208301602085012081835280955050505050506000915054906101000a900460ff1681565b60606006805480602002602001604051908101604052809291908181526020018280548015610d1057602002820191906000526020600020905b8160009054906101000a900473ffffffffffffffffffffffffffffffffffffffff1673ffffffffffffffffffffffffffffffffffffffff1681526020019060010190808311610cc6575b5050505050905090565b600360009054906101000a900473ffffffffffffffffffffffffffffffffffffffff1681565b6001818051602081018201805184825260208301602085012081835280955050505050506000915054906101000a900460ff1681565b6000815111610d8457600080fd5b600060046001816001815401808255809150500390600052602060002090600602019050600480549050816000018190555081816001019080519060200190610dce92919061179c565b50338160030160006101000a81548173ffffffffffffffffffffffffffffffffffffffff021916908373ffffffffffffffffffffffffffffffffffffffff1602179055507f75dbed2f4b10560e83c412e477ae7d3cc865ad4b331fd9d3bedb9d1caf36b149816000015483600033604051610e4c9493929190611e83565b60405180910390a15050565b6000600260009054906101000a900473ffffffffffffffffffffffffffffffffffffffff1673ffffffffffffffffffffffffffffffffffffffff166370a08231836040518263ffffffff1660e01b8152600401610eb59190611ce3565b60206040518083038186803b158015610ecd57600080fd5b505afa158015610ee1573d6000803e3d6000fd5b505050506040513d601f19601f82011682018060405250810190610f05919061198e565b9050919050565b60068181548110610f1c57600080fd5b906000526020600020016000915054906101000a900473ffffffffffffffffffffffffffffffffffffffff1681565b6004805490508210610f5c57600080fd5b6000828233604051602001610f7393929190611e07565b6040516020818303038152906040529050600081604051610f949190611ccc565b908152602001604051809103902060009054906101000a900460ff16610fb957600080fd5b600260009054906101000a900473ffffffffffffffffffffffffffffffffffffffff1673ffffffffffffffffffffffffffffffffffffffff16639dc29fac8360016040518363ffffffff1660e01b8152600401611017929190611d2e565b600060405180830381600087803b15801561103157600080fd5b505af1158015611045573d6000803e3d6000fd5b505050507f0c66462458ff8502ad0c2b7b30cbaf36c2f45a0c352050ec68a1380d4b623ac683833360405161107c93929190611e07565b60405180910390a1505050565b600480549050831061109a57600080fd5b600483815481106110d4577f4e487b7100000000000000000000000000000000000000000000000000000000600052603260045260246000fd5b906000526020600020906006020160030160009054906101000a900473ffffffffffffffffffffffffffffffffffffffff1673ffffffffffffffffffffffffffffffffffffffff168273ffffffffffffffffffffffffffffffffffffffff16141561113e57600080fd5b60048381548110611178577f4e487b7100000000000000000000000000000000000000000000000000000000600052603260045260246000fd5b9060005260206000209060060201600401829080600181540180825580915050600190039060005260206000200160009091909190916101000a81548173ffffffffffffffffffffffffffffffffffffffff021916908373ffffffffffffffffffffffffffffffffffffffff1602179055508060048481548110611225577f4e487b7100000000000000000000000000000000000000000000000000000000600052603260045260246000fd5b906000526020600020906006020160050160008473ffffffffffffffffffffffffffffffffffffffff1673ffffffffffffffffffffffffffffffffffffffff168152602001908152602001600020908051906020019061128692919061179c565b50600560008373ffffffffffffffffffffffffffffffffffffffff1673ffffffffffffffffffffffffffffffffffffffff16815260200190815260200160002060009054906101000a900460ff16611394576001600560008473ffffffffffffffffffffffffffffffffffffffff1673ffffffffffffffffffffffffffffffffffffffff16815260200190815260200160002060006101000a81548160ff0219169083151502179055506006829080600181540180825580915050600190039060005260206000200160009091909190916101000a81548173ffffffffffffffffffffffffffffffffffffffff021916908373ffffffffffffffffffffffffffffffffffffffff1602179055505b7fda9d9532306ca391b9faab97df298b4a4ab517627ee3457239579de84f5acbd683600485815481106113f0577f4e487b7100000000000000000000000000000000000000000000000000000000600052603260045260246000fd5b90600052602060002090600602016001016004868154811061143b577f4e487b7100000000000000000000000000000000000000000000000000000000600052603260045260246000fd5b906000526020600020906006020160030160009054906101000a900473ffffffffffffffffffffffffffffffffffffffff168560405161147e9493929190611f1b565b60405180910390a1505050565b6060600061149884610ad2565b116114a257600080fd5b600483815481106114dc577f4e487b7100000000000000000000000000000000000000000000000000000000600052603260045260246000fd5b906000526020600020906006020160050160008373ffffffffffffffffffffffffffffffffffffffff1673ffffffffffffffffffffffffffffffffffffffff16815260200190815260200160002080546115359061220e565b80601f01602080910402602001604051908101604052809291908181526020018280546115619061220e565b80156115ae5780601f10611583576101008083540402835291602001916115ae565b820191906000526020600020905b81548152906001019060200180831161159157829003601f168201915b5050505050905092915050565b60048054905082106115cc57600080fd5b600060048381548110611608577f4e487b7100000000000000000000000000000000000000000000000000000000600052603260045260246000fd5b906000526020600020906006020160050160008373ffffffffffffffffffffffffffffffffffffffff1673ffffffffffffffffffffffffffffffffffffffff16815260200190815260200160002080546116619061220e565b9050141561166e57600080fd5b600082823360405160200161168593929190611e07565b60405160208183030381529060405290506000816040516116a69190611ccc565b908152602001604051809103902060009054906101000a900460ff16156116cc57600080fd5b600260009054906101000a900473ffffffffffffffffffffffffffffffffffffffff1673ffffffffffffffffffffffffffffffffffffffff166340c10f198360016040518363ffffffff1660e01b815260040161172a929190611d2e565b600060405180830381600087803b15801561174457600080fd5b505af1158015611758573d6000803e3d6000fd5b505050507fb0e2fdeb939f7c4bd17f4b82804b0a050950d5ccaaf3aa22206ea5b80bcdb91483833360405161178f93929190611e07565b60405180910390a1505050565b8280546117a89061220e565b90600052602060002090601f0160209004810192826117ca5760008555611811565b82601f106117e357805160ff1916838001178555611811565b82800160010185558215611811579182015b828111156118105782518255916020019190600101906117f5565b5b50905061181e9190611822565b5090565b5b8082111561183b576000816000905550600101611823565b5090565b600061185261184d84611fe6565b611fc1565b90508281526020810184848401111561186a57600080fd5b6118758482856121cc565b509392505050565b60008135905061188c8161230f565b92915050565b6000813590506118a181612326565b92915050565b600082601f8301126118b857600080fd5b81356118c884826020860161183f565b91505092915050565b6000813590506118e08161233d565b92915050565b6000815190506118f58161233d565b92915050565b60006020828403121561190d57600080fd5b600061191b8482850161187d565b91505092915050565b60006020828403121561193657600080fd5b600082013567ffffffffffffffff81111561195057600080fd5b61195c848285016118a7565b91505092915050565b60006020828403121561197757600080fd5b6000611985848285016118d1565b91505092915050565b6000602082840312156119a057600080fd5b60006119ae848285016118e6565b91505092915050565b600080604083850312156119ca57600080fd5b60006119d8858286016118d1565b92505060206119e98582860161187d565b9150509250929050565b60008060408385031215611a0657600080fd5b6000611a14858286016118d1565b9250506020611a2585828601611892565b9150509250929050565b600080600060608486031215611a4457600080fd5b6000611a52868287016118d1565b9350506020611a6386828701611892565b925050604084013567ffffffffffffffff811115611a8057600080fd5b611a8c868287016118a7565b9150509250925092565b600080600060608486031215611aab57600080fd5b6000611ab9868287016118d1565b9350506020611aca86828701611892565b9250506040611adb868287016118d1565b9150509250925092565b6000611af18383611b1b565b60208301905092915050565b611b068161213c565b82525050565b611b15816120f4565b82525050565b611b24816120e2565b82525050565b611b33816120e2565b82525050565b6000611b448261203c565b611b4e818561205f565b9350611b5983612017565b8060005b83811015611b8a578151611b718882611ae5565b9750611b7c83612052565b925050600181019050611b5d565b5085935050505092915050565b611ba081612106565b82525050565b611baf8161214e565b82525050565b611bbe81612172565b82525050565b611bcd81612196565b82525050565b6000611bde82612047565b611be88185612070565b9350611bf88185602086016121db565b611c01816122fe565b840191505092915050565b6000611c1782612047565b611c218185612081565b9350611c318185602086016121db565b80840191505092915050565b60008154611c4a8161220e565b611c548186612070565b94506001821660008114611c6f5760018114611c8157611cb4565b60ff1983168652602086019350611cb4565b611c8a85612027565b60005b83811015611cac57815481890152600182019150602081019050611c8d565b808801955050505b50505092915050565b611cc681612132565b82525050565b6000611cd88284611c0c565b915081905092915050565b6000602082019050611cf86000830184611b2a565b92915050565b6000604082019050611d136000830185611afd565b8181036020830152611d258184611bd3565b90509392505050565b6000604082019050611d436000830185611afd565b611d506020830184611cbd565b9392505050565b60006020820190508181036000830152611d718184611b39565b905092915050565b6000602082019050611d8e6000830184611b97565b92915050565b6000602082019050611da96000830184611ba6565b92915050565b6000602082019050611dc46000830184611bb5565b92915050565b60006020820190508181036000830152611de48184611bd3565b905092915050565b6000602082019050611e016000830184611cbd565b92915050565b6000606082019050611e1c6000830186611cbd565b611e296020830185611b0c565b611e366040830184611b2a565b949350505050565b6000608082019050611e536000830187611cbd565b611e606020830186611b0c565b611e6d6040830185611b2a565b611e7a6060830184611cbd565b95945050505050565b6000608082019050611e986000830187611cbd565b8181036020830152611eaa8186611bd3565b9050611eb96040830185611bc4565b611ec66060830184611b2a565b95945050505050565b6000608082019050611ee46000830187611cbd565b8181036020830152611ef68186611bd3565b9050611f056040830185611cbd565b611f126060830184611b2a565b95945050505050565b6000608082019050611f306000830187611cbd565b8181036020830152611f428186611c3d565b9050611f516040830185611b2a565b611f5e6060830184611b0c565b95945050505050565b600060a082019050611f7c6000830188611cbd565b8181036020830152611f8e8187611c3d565b9050611f9d6040830186611cbd565b611faa6060830185611b2a565b611fb76080830184611b0c565b9695505050505050565b6000611fcb611fdc565b9050611fd78282612240565b919050565b6000604051905090565b600067ffffffffffffffff821115612001576120006122cf565b5b61200a826122fe565b9050602081019050919050565b6000819050602082019050919050565b60008190508160005260206000209050919050565b600081519050919050565b600081519050919050565b6000602082019050919050565b600082825260208201905092915050565b600082825260208201905092915050565b600081905092915050565b600061209782612132565b91506120a283612132565b9250827fffffffffffffffffffffffffffffffffffffffffffffffffffffffffffffffff038211156120d7576120d6612271565b5b828201905092915050565b60006120ed82612112565b9050919050565b60006120ff82612112565b9050919050565b60008115159050919050565b600073ffffffffffffffffffffffffffffffffffffffff82169050919050565b6000819050919050565b6000612147826121a8565b9050919050565b600061215982612160565b9050919050565b600061216b82612112565b9050919050565b600061217d82612184565b9050919050565b600061218f82612112565b9050919050565b60006121a182612132565b9050919050565b60006121b3826121ba565b9050919050565b60006121c582612112565b9050919050565b82818337600083830152505050565b60005b838110156121f95780820151818401526020810190506121de565b83811115612208576000848401525b50505050565b6000600282049050600182168061222657607f821691505b6020821081141561223a576122396122a0565b5b50919050565b612249826122fe565b810181811067ffffffffffffffff82111715612268576122676122cf565b5b80604052505050565b7f4e487b7100000000000000000000000000000000000000000000000000000000600052601160045260246000fd5b7f4e487b7100000000000000000000000000000000000000000000000000000000600052602260045260246000fd5b7f4e487b7100000000000000000000000000000000000000000000000000000000600052604160045260246000fd5b6000601f19601f8301169050919050565b612318816120e2565b811461232357600080fd5b50565b61232f816120f4565b811461233a57600080fd5b50565b61234681612132565b811461235157600080fd5b5056fea2646970667358221220e6063942e41b5cd4350d1752353c5e766dd588a0ddd9dd2c72a6033fc31e3a8064736f6c63430008010033",
  "immutableReferences": {},
  "source": "pragma solidity ^0.8.0;\r\n\r\nimport \"./ReputationToken.sol\";\r\nimport \"./AwardsToken.sol\";\r\n\r\nuint constant REPUTATION = 1;\r\n\r\ncontract Rewards {\r\n    mapping(string => bool) public hasGivenReputation;\r\n    mapping(string => bool) public hasGivenAward;\r\n    ReputationToken public reputationtoken;\r\n    AwardsToken public awardsToken;\r\n\r\n    constructor(ReputationToken _reputationToken, AwardsToken _awardsToken) {\r\n        reputationtoken = _reputationToken;\r\n        awardsToken = _awardsToken;\r\n    }\r\n\r\n    //TODO: asociar reviews, registrar reviewer\r\n\r\n    struct Paper {\r\n        uint id;\r\n        string title;\r\n        uint tipAmount;\r\n        address author;\r\n        address[] reviewers;\r\n        mapping(address => string) reviews; //TODO update to array of strings\r\n    }\r\n\r\n    Paper[] public papers;\r\n    mapping(address => bool) public reviewerExists;\r\n    address[] public reviewers;\r\n    mapping(address => string []) awards;\r\n\r\n    event PaperCreated(\r\n        uint id,\r\n        string title,\r\n        uint tipAmount,\r\n        address author\r\n    );\r\n\r\n    event ReviewerAdded(\r\n        uint id,\r\n        string title,\r\n        address author,\r\n        address payable reviewer\r\n    );\r\n\r\n    event ReviewerTipped(\r\n        uint id,\r\n        string title,\r\n        uint tipAmount,\r\n        address author,\r\n        address payable reviewer\r\n    );\r\n\r\n    event ReputationGiven(\r\n        uint id,\r\n        address payable reviewer,\r\n        address user\r\n    );\r\n\r\n    event ReputationTaken(\r\n        uint id,\r\n        address payable reviewer,\r\n        address user\r\n    );\r\n\r\n    event AwardGiven(\r\n        uint id,\r\n        address payable reviewer,\r\n        address user,\r\n        uint awardId\r\n    );\r\n\r\n    function createPaper(string memory _title) public {\r\n        require(bytes(_title).length > 0);\r\n        Paper storage paper = papers.push();\r\n        paper.id = papers.length;\r\n        paper.title = _title;\r\n        paper.author = msg.sender;\r\n        emit PaperCreated(paper.id, _title, 0, msg.sender);\r\n    }\r\n\r\n    function addReviewer(uint _id, address payable _reviewer, string memory review) public {\r\n        require(_id < papers.length);\r\n        require(_reviewer != papers[_id].author);\r\n        papers[_id].reviewers.push(_reviewer);\r\n        papers[_id].reviews[_reviewer] = review;\r\n        \r\n        if(!reviewerExists[_reviewer]){\r\n            reviewerExists[_reviewer] = true;\r\n            reviewers.push(_reviewer);\r\n        }\r\n\r\n        emit ReviewerAdded(_id, papers[_id].title, papers[_id].author, _reviewer);\r\n    }\r\n\r\n    function tipReviewer(uint _id, address payable _reviewer) public payable{\r\n        require(_id < papers.length);\r\n\r\n        papers[_id].tipAmount += msg.value;\r\n        _reviewer.transfer(msg.value);\r\n\r\n        emit ReviewerTipped(_id, papers[_id].title, msg.value, papers[_id].author, _reviewer);\r\n    }\r\n\r\n    function giveReputation(uint _id, address payable _reviewer) public payable{\r\n        require(_id < papers.length);\r\n        require(bytes(papers[_id].reviews[_reviewer]).length != 0);\r\n        string memory _hash = string(abi.encode(_id, _reviewer, msg.sender));\r\n        require(!hasGivenReputation[_hash]);\r\n        reputationtoken.mint(_reviewer, REPUTATION);\r\n\r\n        emit ReputationGiven(_id,  _reviewer, msg.sender);\r\n    }\r\n\r\n    function undoGiveReputation(uint _id, address payable _reviewer) public payable{\r\n        require(_id < papers.length);\r\n        string memory _hash = string(abi.encode(_id, _reviewer, msg.sender));\r\n        require(hasGivenReputation[_hash]);\r\n        reputationtoken.burn(_reviewer, REPUTATION);\r\n\r\n        emit ReputationTaken(_id,  _reviewer, msg.sender);\r\n    }\r\n\r\n    function getReputation(address _reviewer) public view returns (uint256) {\r\n        return reputationtoken.balanceOf(_reviewer);\r\n    }\r\n\r\n    function giveAward(uint _id, address payable _reviewer, uint _awardId ) public payable{\r\n        require(_id < papers.length);\r\n        require(_awardId < 4);\r\n        require(bytes(papers[_id].reviews[_reviewer]).length != 0);\r\n        string memory _hash = string(abi.encode(_id, _reviewer, msg.sender, _awardId));\r\n        require(!hasGivenAward[_hash]);\r\n        awardsToken.mint(_reviewer, _hash);\r\n        awards[_reviewer].push(_hash);\r\n\r\n        emit AwardGiven(_id,  _reviewer, msg.sender, _awardId);\r\n    }\r\n\r\n    /*function getAwards(address _reviewer) public view returns (uint [] memory){\r\n        string [] storage hashes = awards[_reviewer];\r\n        uint [] memory awardsList;\r\n\r\n        for(uint i = 0; i < hashes.length; i++){\r\n            string memory _hash = hashes[i]; \r\n            awardsList.push(string(abi.decode(bytes(_hash), (uint , address, address, uint))));\r\n        }    \r\n\r\n        return reviewers;\r\n    }*/\r\n\r\n    function getAwardsBalance(address _id) public view returns (uint){\r\n        return awardsToken.balanceOf(_id);\r\n    }\r\n\r\n    function getReviewers() public view returns (address [] memory){\r\n        return reviewers;\r\n    }\r\n\r\n    function getPaperReviewers(uint _id) public view returns (address [] memory){\r\n        require(_id < papers.length);\r\n        return papers[_id].reviewers;\r\n    }\r\n\r\n    function getPaperReviewsByReviewer(uint _id, address _reviewer) public view returns (string memory){\r\n        require(getPaperReviewerCount(_id) > 0);\r\n        return papers[_id].reviews[_reviewer];\r\n    }\r\n\r\n    function getPaperCount() public view returns (uint256) {\r\n        return papers.length;\r\n    }\r\n\r\n    function getPaperReviewerCount(uint _id) public view returns (uint256) {\r\n        require(_id < papers.length);\r\n        return papers[_id].reviewers.length;\r\n    }\r\n}",
  "sourcePath": "C:/Users/frg19/Documents/GitHub/Rewards/contracts/Rewards.sol",
  "compiler": {
    "name": "solc",
    "version": "0.8.1+commit.df193b15.Emscripten.clang"
  },
  "schemaVersion": "3.3.4",
  "updatedAt": "2021-04-22T22:20:28.158Z",
  "networkType": "ethereum",
  "devdoc": {
    "kind": "dev",
    "methods": {},
    "version": 1
  },
  "userdoc": {
    "kind": "user",
    "methods": {},
    "version": 1
  }
}