{
  "contractName": "Rewards",
  "abi": [
    {
      "inputs": [
        {
          "internalType": "contract ReputationToken",
          "name": "_reputationToken",
          "type": "address"
        },
        {
          "internalType": "contract AwardsToken",
          "name": "_awardsToken",
          "type": "address"
        }
      ],
      "stateMutability": "nonpayable",
      "type": "constructor"
    },
    {
      "anonymous": false,
      "inputs": [
        {
          "indexed": false,
          "internalType": "uint256",
          "name": "id",
          "type": "uint256"
        },
        {
          "indexed": false,
          "internalType": "address payable",
          "name": "reviewer",
          "type": "address"
        },
        {
          "indexed": false,
          "internalType": "address",
          "name": "user",
          "type": "address"
        },
        {
          "indexed": false,
          "internalType": "uint256",
          "name": "awardId",
          "type": "uint256"
        }
      ],
      "name": "AwardGiven",
      "type": "event"
    },
    {
      "anonymous": false,
      "inputs": [
        {
          "indexed": false,
          "internalType": "uint256",
          "name": "id",
          "type": "uint256"
        },
        {
          "indexed": false,
          "internalType": "string",
          "name": "title",
          "type": "string"
        },
        {
          "indexed": false,
          "internalType": "uint256",
          "name": "tipAmount",
          "type": "uint256"
        },
        {
          "indexed": false,
          "internalType": "address",
          "name": "author",
          "type": "address"
        }
      ],
      "name": "PaperCreated",
      "type": "event"
    },
    {
      "anonymous": false,
      "inputs": [
        {
          "indexed": false,
          "internalType": "uint256",
          "name": "id",
          "type": "uint256"
        },
        {
          "indexed": false,
          "internalType": "address payable",
          "name": "reviewer",
          "type": "address"
        },
        {
          "indexed": false,
          "internalType": "address",
          "name": "user",
          "type": "address"
        }
      ],
      "name": "ReputationGiven",
      "type": "event"
    },
    {
      "anonymous": false,
      "inputs": [
        {
          "indexed": false,
          "internalType": "uint256",
          "name": "id",
          "type": "uint256"
        },
        {
          "indexed": false,
          "internalType": "address payable",
          "name": "reviewer",
          "type": "address"
        },
        {
          "indexed": false,
          "internalType": "address",
          "name": "user",
          "type": "address"
        }
      ],
      "name": "ReputationTaken",
      "type": "event"
    },
    {
      "anonymous": false,
      "inputs": [
        {
          "indexed": false,
          "internalType": "uint256",
          "name": "id",
          "type": "uint256"
        },
        {
          "indexed": false,
          "internalType": "string",
          "name": "title",
          "type": "string"
        },
        {
          "indexed": false,
          "internalType": "address",
          "name": "author",
          "type": "address"
        },
        {
          "indexed": false,
          "internalType": "address payable",
          "name": "reviewer",
          "type": "address"
        }
      ],
      "name": "ReviewerAdded",
      "type": "event"
    },
    {
      "anonymous": false,
      "inputs": [
        {
          "indexed": false,
          "internalType": "uint256",
          "name": "id",
          "type": "uint256"
        },
        {
          "indexed": false,
          "internalType": "string",
          "name": "title",
          "type": "string"
        },
        {
          "indexed": false,
          "internalType": "uint256",
          "name": "tipAmount",
          "type": "uint256"
        },
        {
          "indexed": false,
          "internalType": "address",
          "name": "author",
          "type": "address"
        },
        {
          "indexed": false,
          "internalType": "address payable",
          "name": "reviewer",
          "type": "address"
        }
      ],
      "name": "ReviewerTipped",
      "type": "event"
    },
    {
      "inputs": [],
      "name": "awardsToken",
      "outputs": [
        {
          "internalType": "contract AwardsToken",
          "name": "",
          "type": "address"
        }
      ],
      "stateMutability": "view",
      "type": "function",
      "constant": true
    },
    {
      "inputs": [
        {
          "internalType": "string",
          "name": "",
          "type": "string"
        }
      ],
      "name": "hasGivenAward",
      "outputs": [
        {
          "internalType": "bool",
          "name": "",
          "type": "bool"
        }
      ],
      "stateMutability": "view",
      "type": "function",
      "constant": true
    },
    {
      "inputs": [
        {
          "internalType": "string",
          "name": "",
          "type": "string"
        }
      ],
      "name": "hasGivenReputation",
      "outputs": [
        {
          "internalType": "bool",
          "name": "",
          "type": "bool"
        }
      ],
      "stateMutability": "view",
      "type": "function",
      "constant": true
    },
    {
      "inputs": [
        {
          "internalType": "uint256",
          "name": "",
          "type": "uint256"
        }
      ],
      "name": "papers",
      "outputs": [
        {
          "internalType": "uint256",
          "name": "id",
          "type": "uint256"
        },
        {
          "internalType": "string",
          "name": "title",
          "type": "string"
        },
        {
          "internalType": "uint256",
          "name": "tipAmount",
          "type": "uint256"
        },
        {
          "internalType": "address",
          "name": "author",
          "type": "address"
        }
      ],
      "stateMutability": "view",
      "type": "function",
      "constant": true
    },
    {
      "inputs": [],
      "name": "reputationtoken",
      "outputs": [
        {
          "internalType": "contract ReputationToken",
          "name": "",
          "type": "address"
        }
      ],
      "stateMutability": "view",
      "type": "function",
      "constant": true
    },
    {
      "inputs": [
        {
          "internalType": "address",
          "name": "",
          "type": "address"
        }
      ],
      "name": "reviewerExists",
      "outputs": [
        {
          "internalType": "bool",
          "name": "",
          "type": "bool"
        }
      ],
      "stateMutability": "view",
      "type": "function",
      "constant": true
    },
    {
      "inputs": [
        {
          "internalType": "uint256",
          "name": "",
          "type": "uint256"
        }
      ],
      "name": "reviewers",
      "outputs": [
        {
          "internalType": "address",
          "name": "",
          "type": "address"
        }
      ],
      "stateMutability": "view",
      "type": "function",
      "constant": true
    },
    {
      "inputs": [
        {
          "internalType": "string",
          "name": "_title",
          "type": "string"
        }
      ],
      "name": "createPaper",
      "outputs": [],
      "stateMutability": "nonpayable",
      "type": "function"
    },
    {
      "inputs": [
        {
          "internalType": "uint256",
          "name": "_id",
          "type": "uint256"
        },
        {
          "internalType": "address payable",
          "name": "_reviewer",
          "type": "address"
        },
        {
          "internalType": "string",
          "name": "review",
          "type": "string"
        }
      ],
      "name": "addReviewer",
      "outputs": [],
      "stateMutability": "nonpayable",
      "type": "function"
    },
    {
      "inputs": [
        {
          "internalType": "uint256",
          "name": "_id",
          "type": "uint256"
        },
        {
          "internalType": "address payable",
          "name": "_reviewer",
          "type": "address"
        }
      ],
      "name": "tipReviewer",
      "outputs": [],
      "stateMutability": "payable",
      "type": "function",
      "payable": true
    },
    {
      "inputs": [
        {
          "internalType": "uint256",
          "name": "_id",
          "type": "uint256"
        },
        {
          "internalType": "address payable",
          "name": "_reviewer",
          "type": "address"
        }
      ],
      "name": "giveReputation",
      "outputs": [],
      "stateMutability": "payable",
      "type": "function",
      "payable": true
    },
    {
      "inputs": [
        {
          "internalType": "uint256",
          "name": "_id",
          "type": "uint256"
        },
        {
          "internalType": "address payable",
          "name": "_reviewer",
          "type": "address"
        }
      ],
      "name": "undoGiveReputation",
      "outputs": [],
      "stateMutability": "payable",
      "type": "function",
      "payable": true
    },
    {
      "inputs": [
        {
          "internalType": "address",
          "name": "_reviewer",
          "type": "address"
        }
      ],
      "name": "getReputation",
      "outputs": [
        {
          "internalType": "uint256",
          "name": "",
          "type": "uint256"
        }
      ],
      "stateMutability": "view",
      "type": "function",
      "constant": true
    },
    {
      "inputs": [
        {
          "internalType": "uint256",
          "name": "_id",
          "type": "uint256"
        },
        {
          "internalType": "address payable",
          "name": "_reviewer",
          "type": "address"
        },
        {
          "internalType": "uint256",
          "name": "_awardId",
          "type": "uint256"
        }
      ],
      "name": "giveAward",
      "outputs": [],
      "stateMutability": "payable",
      "type": "function",
      "payable": true
    },
    {
      "inputs": [
        {
          "internalType": "address",
          "name": "_reviewer",
          "type": "address"
        },
        {
          "internalType": "uint256",
          "name": "_id",
          "type": "uint256"
        }
      ],
      "name": "getAward",
      "outputs": [
        {
          "components": [
            {
              "internalType": "uint256",
              "name": "id",
              "type": "uint256"
            },
            {
              "internalType": "address",
              "name": "reviewer",
              "type": "address"
            },
            {
              "internalType": "address",
              "name": "sender",
              "type": "address"
            },
            {
              "internalType": "uint256",
              "name": "awardId",
              "type": "uint256"
            }
          ],
          "internalType": "struct Rewards.Award",
          "name": "",
          "type": "tuple"
        }
      ],
      "stateMutability": "view",
      "type": "function",
      "constant": true
    },
    {
      "inputs": [
        {
          "internalType": "address",
          "name": "_reviewer",
          "type": "address"
        }
      ],
      "name": "getAwardsBalance",
      "outputs": [
        {
          "internalType": "uint256",
          "name": "",
          "type": "uint256"
        }
      ],
      "stateMutability": "view",
      "type": "function",
      "constant": true
    },
    {
      "inputs": [],
      "name": "getReviewers",
      "outputs": [
        {
          "internalType": "address[]",
          "name": "",
          "type": "address[]"
        }
      ],
      "stateMutability": "view",
      "type": "function",
      "constant": true
    },
    {
      "inputs": [
        {
          "internalType": "uint256",
          "name": "_id",
          "type": "uint256"
        }
      ],
      "name": "getPaperReviewers",
      "outputs": [
        {
          "internalType": "address[]",
          "name": "",
          "type": "address[]"
        }
      ],
      "stateMutability": "view",
      "type": "function",
      "constant": true
    },
    {
      "inputs": [
        {
          "internalType": "uint256",
          "name": "_id",
          "type": "uint256"
        },
        {
          "internalType": "address",
          "name": "_reviewer",
          "type": "address"
        }
      ],
      "name": "getPaperReviewsByReviewer",
      "outputs": [
        {
          "internalType": "string",
          "name": "",
          "type": "string"
        }
      ],
      "stateMutability": "view",
      "type": "function",
      "constant": true
    },
    {
      "inputs": [],
      "name": "getPaperCount",
      "outputs": [
        {
          "internalType": "uint256",
          "name": "",
          "type": "uint256"
        }
      ],
      "stateMutability": "view",
      "type": "function",
      "constant": true
    },
    {
      "inputs": [],
      "name": "getReviewerCount",
      "outputs": [
        {
          "internalType": "uint256",
          "name": "",
          "type": "uint256"
        }
      ],
      "stateMutability": "view",
      "type": "function",
      "constant": true
    },
    {
      "inputs": [
        {
          "internalType": "uint256",
          "name": "_id",
          "type": "uint256"
        }
      ],
      "name": "getPaperReviewerCount",
      "outputs": [
        {
          "internalType": "uint256",
          "name": "",
          "type": "uint256"
        }
      ],
      "stateMutability": "view",
      "type": "function",
      "constant": true
    }
  ],
  "bytecode": "0x60806040523480156200001157600080fd5b5060405162002a3938038062002a398339818101604052810190620000379190620000ef565b81600260006101000a81548173ffffffffffffffffffffffffffffffffffffffff021916908373ffffffffffffffffffffffffffffffffffffffff16021790555080600360006101000a81548173ffffffffffffffffffffffffffffffffffffffff021916908373ffffffffffffffffffffffffffffffffffffffff1602179055505050620001c0565b600081519050620000d2816200018c565b92915050565b600081519050620000e981620001a6565b92915050565b600080604083850312156200010357600080fd5b60006200011385828601620000d8565b92505060206200012685828601620000c1565b9150509250929050565b60006200013d826200016c565b9050919050565b6000620001518262000130565b9050919050565b6000620001658262000130565b9050919050565b600073ffffffffffffffffffffffffffffffffffffffff82169050919050565b620001978162000144565b8114620001a357600080fd5b50565b620001b18162000158565b8114620001bd57600080fd5b50565b61286980620001d06000396000f3fe6080604052600436106101355760003560e01c806375a87643116100ab5780639c89a0e21161006f5780639c89a0e21461045d5780639cc616f61461049a578063cc87c91e146104d7578063dda7247b146104f3578063df4d69341461051c578063ef5ddf781461055957610135565b806375a876431461037657806386febbbf146103a15780638c9b5e63146103cc5780638e881498146103f757806390a10f741461043457610135565b8063316ed42e116100fd578063316ed42e146102295780633d7e97f2146102665780633f2f3e57146102915780635c34e898146102ce5780635e775a27146102f957806361a5d6a81461033957610135565b806305a378a21461013a5780631789064f14610156578063249fd94b1461017257806327167bd5146101af578063305dd39d146101ec575b600080fd5b610154600480360381019061014f9190611ef6565b610575565b005b610170600480360381019061016b9190611df0565b6107e0565b005b34801561017e57600080fd5b5061019960048036038101906101949190611cbc565b610992565b6040516101a691906122cb565b60405180910390f35b3480156101bb57600080fd5b506101d660048036038101906101d19190611cbc565b610a46565b6040516101e3919061223d565b60405180910390f35b3480156101f857600080fd5b50610213600480360381019061020e9190611d62565b610a66565b604051610220919061221b565b60405180910390f35b34801561023557600080fd5b50610250600480360381019061024b9190611d62565b610b50565b60405161025d91906122cb565b60405180910390f35b34801561027257600080fd5b5061027b610bb9565b60405161028891906122cb565b60405180910390f35b34801561029d57600080fd5b506102b860048036038101906102b39190611ce5565b610bc6565b6040516102c591906122b0565b60405180910390f35b3480156102da57600080fd5b506102e3610d85565b6040516102f09190612273565b60405180910390f35b34801561030557600080fd5b50610320600480360381019061031b9190611d62565b610dab565b60405161033094939291906123ae565b60405180910390f35b34801561034557600080fd5b50610360600480360381019061035b9190611d21565b610e93565b60405161036d919061223d565b60405180910390f35b34801561038257600080fd5b5061038b610ec9565b604051610398919061221b565b60405180910390f35b3480156103ad57600080fd5b506103b6610f57565b6040516103c391906122cb565b60405180910390f35b3480156103d857600080fd5b506103e1610f64565b6040516103ee9190612258565b60405180910390f35b34801561040357600080fd5b5061041e60048036038101906104199190611d21565b610f8a565b60405161042b919061223d565b60405180910390f35b34801561044057600080fd5b5061045b60048036038101906104569190611d21565b610fc0565b005b34801561046957600080fd5b50610484600480360381019061047f9190611cbc565b6110a2565b60405161049191906122cb565b60405180910390f35b3480156104a657600080fd5b506104c160048036038101906104bc9190611d62565b611156565b6040516104ce91906121a7565b60405180910390f35b6104f160048036038101906104ec9190611df0565b611195565b005b3480156104ff57600080fd5b5061051a60048036038101906105159190611e8f565b611309565b005b34801561052857600080fd5b50610543600480360381019061053e9190611db4565b6117ac565b604051610550919061228e565b60405180910390f35b610573600480360381019061056e9190611df0565b6118dc565b005b600480549050831061058657600080fd5b6004811061059357600080fd5b6000600484815481106105cf577f4e487b7100000000000000000000000000000000000000000000000000000000600052603260045260246000fd5b906000526020600020906006020160050160008473ffffffffffffffffffffffffffffffffffffffff1673ffffffffffffffffffffffffffffffffffffffff1681526020019081526020016000208054610628906126ed565b9050141561063557600080fd5b60008383338460405160200161064e949392919061231d565b604051602081830303815290604052905060018160405161066f9190612190565b908152602001604051809103902060009054906101000a900460ff161561069557600080fd5b600360009054906101000a900473ffffffffffffffffffffffffffffffffffffffff1673ffffffffffffffffffffffffffffffffffffffff1663d0def52184836040518363ffffffff1660e01b81526004016106f29291906121c2565b600060405180830381600087803b15801561070c57600080fd5b505af1158015610720573d6000803e3d6000fd5b50505050600760008473ffffffffffffffffffffffffffffffffffffffff1673ffffffffffffffffffffffffffffffffffffffff1681526020019081526020016000208190806001815401808255809150506001900390600052602060002001600090919091909150908051906020019061079c929190611af4565b507f07128538c880e3e0420db7ffeeed2ec2c8c21674d9ff7401f55a25be56e46bae848433856040516107d2949392919061231d565b60405180910390a150505050565b60048054905082106107f157600080fd5b346004838154811061082c577f4e487b7100000000000000000000000000000000000000000000000000000000600052603260045260246000fd5b9060005260206000209060060201600201600082825461084c919061256b565b925050819055508073ffffffffffffffffffffffffffffffffffffffff166108fc349081150290604051600060405180830381858888f19350505050158015610899573d6000803e3d6000fd5b507f53f38d23892c8f39da949a3f0104a3792f839931ef190898ad7535f1109b39bb82600484815481106108f6577f4e487b7100000000000000000000000000000000000000000000000000000000600052603260045260246000fd5b90600052602060002090600602016001013460048681548110610942577f4e487b7100000000000000000000000000000000000000000000000000000000600052603260045260246000fd5b906000526020600020906006020160030160009054906101000a900473ffffffffffffffffffffffffffffffffffffffff1685604051610986959493929190612446565b60405180910390a15050565b6000600360009054906101000a900473ffffffffffffffffffffffffffffffffffffffff1673ffffffffffffffffffffffffffffffffffffffff166370a08231836040518263ffffffff1660e01b81526004016109ef91906121a7565b60206040518083038186803b158015610a0757600080fd5b505afa158015610a1b573d6000803e3d6000fd5b505050506040513d601f19601f82011682018060405250810190610a3f9190611d8b565b9050919050565b60056020528060005260406000206000915054906101000a900460ff1681565b60606004805490508210610a7957600080fd5b60048281548110610ab3577f4e487b7100000000000000000000000000000000000000000000000000000000600052603260045260246000fd5b9060005260206000209060060201600401805480602002602001604051908101604052809291908181526020018280548015610b4457602002820191906000526020600020905b8160009054906101000a900473ffffffffffffffffffffffffffffffffffffffff1673ffffffffffffffffffffffffffffffffffffffff1681526020019060010190808311610afa575b50505050509050919050565b60006004805490508210610b6357600080fd5b60048281548110610b9d577f4e487b7100000000000000000000000000000000000000000000000000000000600052603260045260246000fd5b9060005260206000209060060201600401805490509050919050565b6000600480549050905090565b610bce611b7a565b6000600760008573ffffffffffffffffffffffffffffffffffffffff1673ffffffffffffffffffffffffffffffffffffffff16815260200190815260200160002090506000818481548110610c4c577f4e487b7100000000000000000000000000000000000000000000000000000000600052603260045260246000fd5b906000526020600020018054610c61906126ed565b80601f0160208091040260200160405190810160405280929190818152602001828054610c8d906126ed565b8015610cda5780601f10610caf57610100808354040283529160200191610cda565b820191906000526020600020905b815481529060010190602001808311610cbd57829003601f168201915b50505050509050610ce9611b7a565b81806020019051810190610cfd9190611e2c565b84600001856020018660400187606001848152508473ffffffffffffffffffffffffffffffffffffffff1673ffffffffffffffffffffffffffffffffffffffff168152508473ffffffffffffffffffffffffffffffffffffffff1673ffffffffffffffffffffffffffffffffffffffff16815250848152505050505080935050505092915050565b600260009054906101000a900473ffffffffffffffffffffffffffffffffffffffff1681565b60048181548110610dbb57600080fd5b9060005260206000209060060201600091509050806000015490806001018054610de4906126ed565b80601f0160208091040260200160405190810160405280929190818152602001828054610e10906126ed565b8015610e5d5780601f10610e3257610100808354040283529160200191610e5d565b820191906000526020600020905b815481529060010190602001808311610e4057829003601f168201915b5050505050908060020154908060030160009054906101000a900473ffffffffffffffffffffffffffffffffffffffff16905084565b6000818051602081018201805184825260208301602085012081835280955050505050506000915054906101000a900460ff1681565b60606006805480602002602001604051908101604052809291908181526020018280548015610f4d57602002820191906000526020600020905b8160009054906101000a900473ffffffffffffffffffffffffffffffffffffffff1673ffffffffffffffffffffffffffffffffffffffff1681526020019060010190808311610f03575b5050505050905090565b6000600680549050905090565b600360009054906101000a900473ffffffffffffffffffffffffffffffffffffffff1681565b6001818051602081018201805184825260208301602085012081835280955050505050506000915054906101000a900460ff1681565b6000815111610fce57600080fd5b600060046001816001815401808255809150500390600052602060002090600602019050600480549050816000018190555081816001019080519060200190611018929190611af4565b50338160030160006101000a81548173ffffffffffffffffffffffffffffffffffffffff021916908373ffffffffffffffffffffffffffffffffffffffff1602179055507f75dbed2f4b10560e83c412e477ae7d3cc865ad4b331fd9d3bedb9d1caf36b1498160000154836000336040516110969493929190612362565b60405180910390a15050565b6000600260009054906101000a900473ffffffffffffffffffffffffffffffffffffffff1673ffffffffffffffffffffffffffffffffffffffff166370a08231836040518263ffffffff1660e01b81526004016110ff91906121a7565b60206040518083038186803b15801561111757600080fd5b505afa15801561112b573d6000803e3d6000fd5b505050506040513d601f19601f8201168201806040525081019061114f9190611d8b565b9050919050565b6006818154811061116657600080fd5b906000526020600020016000915054906101000a900473ffffffffffffffffffffffffffffffffffffffff1681565b60048054905082106111a657600080fd5b60008282336040516020016111bd939291906122e6565b60405160208183030381529060405290506000816040516111de9190612190565b908152602001604051809103902060009054906101000a900460ff1661120357600080fd5b600080826040516112149190612190565b908152602001604051809103902060006101000a81548160ff021916908315150217905550600260009054906101000a900473ffffffffffffffffffffffffffffffffffffffff1673ffffffffffffffffffffffffffffffffffffffff16639dc29fac8360016040518363ffffffff1660e01b81526004016112979291906121f2565b600060405180830381600087803b1580156112b157600080fd5b505af11580156112c5573d6000803e3d6000fd5b505050507f0c66462458ff8502ad0c2b7b30cbaf36c2f45a0c352050ec68a1380d4b623ac68383336040516112fc939291906122e6565b60405180910390a1505050565b600480549050831061131a57600080fd5b600060048481548110611356577f4e487b7100000000000000000000000000000000000000000000000000000000600052603260045260246000fd5b906000526020600020906006020160050160008473ffffffffffffffffffffffffffffffffffffffff1673ffffffffffffffffffffffffffffffffffffffff16815260200190815260200160002080546113af906126ed565b9050146113bb57600080fd5b600483815481106113f5577f4e487b7100000000000000000000000000000000000000000000000000000000600052603260045260246000fd5b906000526020600020906006020160030160009054906101000a900473ffffffffffffffffffffffffffffffffffffffff1673ffffffffffffffffffffffffffffffffffffffff168273ffffffffffffffffffffffffffffffffffffffff16141561145f57600080fd5b60048381548110611499577f4e487b7100000000000000000000000000000000000000000000000000000000600052603260045260246000fd5b9060005260206000209060060201600401829080600181540180825580915050600190039060005260206000200160009091909190916101000a81548173ffffffffffffffffffffffffffffffffffffffff021916908373ffffffffffffffffffffffffffffffffffffffff1602179055508060048481548110611546577f4e487b7100000000000000000000000000000000000000000000000000000000600052603260045260246000fd5b906000526020600020906006020160050160008473ffffffffffffffffffffffffffffffffffffffff1673ffffffffffffffffffffffffffffffffffffffff16815260200190815260200160002090805190602001906115a7929190611af4565b50600560008373ffffffffffffffffffffffffffffffffffffffff1673ffffffffffffffffffffffffffffffffffffffff16815260200190815260200160002060009054906101000a900460ff166116b5576001600560008473ffffffffffffffffffffffffffffffffffffffff1673ffffffffffffffffffffffffffffffffffffffff16815260200190815260200160002060006101000a81548160ff0219169083151502179055506006829080600181540180825580915050600190039060005260206000200160009091909190916101000a81548173ffffffffffffffffffffffffffffffffffffffff021916908373ffffffffffffffffffffffffffffffffffffffff1602179055505b7fda9d9532306ca391b9faab97df298b4a4ab517627ee3457239579de84f5acbd68360048581548110611711577f4e487b7100000000000000000000000000000000000000000000000000000000600052603260045260246000fd5b90600052602060002090600602016001016004868154811061175c577f4e487b7100000000000000000000000000000000000000000000000000000000600052603260045260246000fd5b906000526020600020906006020160030160009054906101000a900473ffffffffffffffffffffffffffffffffffffffff168560405161179f94939291906123fa565b60405180910390a1505050565b606060006117b984610b50565b116117c357600080fd5b600483815481106117fd577f4e487b7100000000000000000000000000000000000000000000000000000000600052603260045260246000fd5b906000526020600020906006020160050160008373ffffffffffffffffffffffffffffffffffffffff1673ffffffffffffffffffffffffffffffffffffffff1681526020019081526020016000208054611856906126ed565b80601f0160208091040260200160405190810160405280929190818152602001828054611882906126ed565b80156118cf5780601f106118a4576101008083540402835291602001916118cf565b820191906000526020600020905b8154815290600101906020018083116118b257829003601f168201915b5050505050905092915050565b60048054905082106118ed57600080fd5b600060048381548110611929577f4e487b7100000000000000000000000000000000000000000000000000000000600052603260045260246000fd5b906000526020600020906006020160050160008373ffffffffffffffffffffffffffffffffffffffff1673ffffffffffffffffffffffffffffffffffffffff1681526020019081526020016000208054611982906126ed565b9050141561198f57600080fd5b60008282336040516020016119a6939291906122e6565b60405160208183030381529060405290506000816040516119c79190612190565b908152602001604051809103902060009054906101000a900460ff16156119ed57600080fd5b60016000826040516119ff9190612190565b908152602001604051809103902060006101000a81548160ff021916908315150217905550600260009054906101000a900473ffffffffffffffffffffffffffffffffffffffff1673ffffffffffffffffffffffffffffffffffffffff166340c10f198360016040518363ffffffff1660e01b8152600401611a829291906121f2565b600060405180830381600087803b158015611a9c57600080fd5b505af1158015611ab0573d6000803e3d6000fd5b505050507fb0e2fdeb939f7c4bd17f4b82804b0a050950d5ccaaf3aa22206ea5b80bcdb914838333604051611ae7939291906122e6565b60405180910390a1505050565b828054611b00906126ed565b90600052602060002090601f016020900481019282611b225760008555611b69565b82601f10611b3b57805160ff1916838001178555611b69565b82800160010185558215611b69579182015b82811115611b68578251825591602001919060010190611b4d565b5b509050611b769190611bce565b5090565b604051806080016040528060008152602001600073ffffffffffffffffffffffffffffffffffffffff168152602001600073ffffffffffffffffffffffffffffffffffffffff168152602001600081525090565b5b80821115611be7576000816000905550600101611bcf565b5090565b6000611bfe611bf9846124c5565b6124a0565b905082815260208101848484011115611c1657600080fd5b611c218482856126ab565b509392505050565b600081359050611c38816127ee565b92915050565b600081359050611c4d81612805565b92915050565b600081519050611c6281612805565b92915050565b600082601f830112611c7957600080fd5b8135611c89848260208601611beb565b91505092915050565b600081359050611ca18161281c565b92915050565b600081519050611cb68161281c565b92915050565b600060208284031215611cce57600080fd5b6000611cdc84828501611c29565b91505092915050565b60008060408385031215611cf857600080fd5b6000611d0685828601611c29565b9250506020611d1785828601611c92565b9150509250929050565b600060208284031215611d3357600080fd5b600082013567ffffffffffffffff811115611d4d57600080fd5b611d5984828501611c68565b91505092915050565b600060208284031215611d7457600080fd5b6000611d8284828501611c92565b91505092915050565b600060208284031215611d9d57600080fd5b6000611dab84828501611ca7565b91505092915050565b60008060408385031215611dc757600080fd5b6000611dd585828601611c92565b9250506020611de685828601611c29565b9150509250929050565b60008060408385031215611e0357600080fd5b6000611e1185828601611c92565b9250506020611e2285828601611c3e565b9150509250929050565b60008060008060808587031215611e4257600080fd5b6000611e5087828801611ca7565b9450506020611e6187828801611c53565b9350506040611e7287828801611c53565b9250506060611e8387828801611ca7565b91505092959194509250565b600080600060608486031215611ea457600080fd5b6000611eb286828701611c92565b9350506020611ec386828701611c3e565b925050604084013567ffffffffffffffff811115611ee057600080fd5b611eec86828701611c68565b9150509250925092565b600080600060608486031215611f0b57600080fd5b6000611f1986828701611c92565b9350506020611f2a86828701611c3e565b9250506040611f3b86828701611c92565b9150509250925092565b6000611f518383611f7b565b60208301905092915050565b611f668161261b565b82525050565b611f75816125d3565b82525050565b611f84816125c1565b82525050565b611f93816125c1565b82525050565b6000611fa48261251b565b611fae818561253e565b9350611fb9836124f6565b8060005b83811015611fea578151611fd18882611f45565b9750611fdc83612531565b925050600181019050611fbd565b5085935050505092915050565b612000816125e5565b82525050565b61200f8161262d565b82525050565b61201e81612651565b82525050565b61202d81612675565b82525050565b600061203e82612526565b612048818561254f565b93506120588185602086016126ba565b612061816127dd565b840191505092915050565b600061207782612526565b6120818185612560565b93506120918185602086016126ba565b80840191505092915050565b600081546120aa816126ed565b6120b4818661254f565b945060018216600081146120cf57600181146120e157612114565b60ff1983168652602086019350612114565b6120ea85612506565b60005b8381101561210c578154818901526001820191506020810190506120ed565b808801955050505b50505092915050565b6080820160008201516121336000850182612172565b5060208201516121466020850182611f7b565b5060408201516121596040850182611f7b565b50606082015161216c6060850182612172565b50505050565b61217b81612611565b82525050565b61218a81612611565b82525050565b600061219c828461206c565b915081905092915050565b60006020820190506121bc6000830184611f8a565b92915050565b60006040820190506121d76000830185611f5d565b81810360208301526121e98184612033565b90509392505050565b60006040820190506122076000830185611f5d565b6122146020830184612181565b9392505050565b600060208201905081810360008301526122358184611f99565b905092915050565b60006020820190506122526000830184611ff7565b92915050565b600060208201905061226d6000830184612006565b92915050565b60006020820190506122886000830184612015565b92915050565b600060208201905081810360008301526122a88184612033565b905092915050565b60006080820190506122c5600083018461211d565b92915050565b60006020820190506122e06000830184612181565b92915050565b60006060820190506122fb6000830186612181565b6123086020830185611f6c565b6123156040830184611f8a565b949350505050565b60006080820190506123326000830187612181565b61233f6020830186611f6c565b61234c6040830185611f8a565b6123596060830184612181565b95945050505050565b60006080820190506123776000830187612181565b81810360208301526123898186612033565b90506123986040830185612024565b6123a56060830184611f8a565b95945050505050565b60006080820190506123c36000830187612181565b81810360208301526123d58186612033565b90506123e46040830185612181565b6123f16060830184611f8a565b95945050505050565b600060808201905061240f6000830187612181565b8181036020830152612421818661209d565b90506124306040830185611f8a565b61243d6060830184611f6c565b95945050505050565b600060a08201905061245b6000830188612181565b818103602083015261246d818761209d565b905061247c6040830186612181565b6124896060830185611f8a565b6124966080830184611f6c565b9695505050505050565b60006124aa6124bb565b90506124b6828261271f565b919050565b6000604051905090565b600067ffffffffffffffff8211156124e0576124df6127ae565b5b6124e9826127dd565b9050602081019050919050565b6000819050602082019050919050565b60008190508160005260206000209050919050565b600081519050919050565b600081519050919050565b6000602082019050919050565b600082825260208201905092915050565b600082825260208201905092915050565b600081905092915050565b600061257682612611565b915061258183612611565b9250827fffffffffffffffffffffffffffffffffffffffffffffffffffffffffffffffff038211156125b6576125b5612750565b5b828201905092915050565b60006125cc826125f1565b9050919050565b60006125de826125f1565b9050919050565b60008115159050919050565b600073ffffffffffffffffffffffffffffffffffffffff82169050919050565b6000819050919050565b600061262682612687565b9050919050565b60006126388261263f565b9050919050565b600061264a826125f1565b9050919050565b600061265c82612663565b9050919050565b600061266e826125f1565b9050919050565b600061268082612611565b9050919050565b600061269282612699565b9050919050565b60006126a4826125f1565b9050919050565b82818337600083830152505050565b60005b838110156126d85780820151818401526020810190506126bd565b838111156126e7576000848401525b50505050565b6000600282049050600182168061270557607f821691505b602082108114156127195761271861277f565b5b50919050565b612728826127dd565b810181811067ffffffffffffffff82111715612747576127466127ae565b5b80604052505050565b7f4e487b7100000000000000000000000000000000000000000000000000000000600052601160045260246000fd5b7f4e487b7100000000000000000000000000000000000000000000000000000000600052602260045260246000fd5b7f4e487b7100000000000000000000000000000000000000000000000000000000600052604160045260246000fd5b6000601f19601f8301169050919050565b6127f7816125c1565b811461280257600080fd5b50565b61280e816125d3565b811461281957600080fd5b50565b61282581612611565b811461283057600080fd5b5056fea26469706673582212207fb730dcd4b7acf3ff9a140a47182a2b94d60201b2cadc8aed28838e1f6af5ec64736f6c63430008010033",
  "immutableReferences": {},
  "source": "pragma solidity ^0.8.0;\n\nimport \"./ReputationToken.sol\";\nimport \"./AwardsToken.sol\";\n\nuint constant REPUTATION = 1;\n\ncontract Rewards {\n    mapping(string => bool) public hasGivenReputation;\n    mapping(string => bool) public hasGivenAward;\n    ReputationToken public reputationtoken;\n    AwardsToken public awardsToken;\n\n    constructor(ReputationToken _reputationToken, AwardsToken _awardsToken) {\n        reputationtoken = _reputationToken;\n        awardsToken = _awardsToken;\n    }\n\n    struct Award {\n        uint id;\n        address reviewer;\n        address sender;\n        uint awardId;\n    }\n\n    struct Paper {\n        uint id;\n        string title;\n        uint tipAmount;\n        address author;\n        address[] reviewers;\n        mapping(address => string) reviews; //TODO update to array of strings\n    }\n\n    Paper[] public papers;\n    mapping(address => bool) public reviewerExists;\n    address[] public reviewers;\n    mapping(address => string []) awards;\n\n    event PaperCreated(\n        uint id,\n        string title,\n        uint tipAmount,\n        address author\n    );\n\n    event ReviewerAdded(\n        uint id,\n        string title,\n        address author,\n        address payable reviewer\n    );\n\n    event ReviewerTipped(\n        uint id,\n        string title,\n        uint tipAmount,\n        address author,\n        address payable reviewer\n    );\n\n    event ReputationGiven(\n        uint id,\n        address payable reviewer,\n        address user\n    );\n\n    event ReputationTaken(\n        uint id,\n        address payable reviewer,\n        address user\n    );\n\n    event AwardGiven(\n        uint id,\n        address payable reviewer,\n        address user,\n        uint awardId\n    );\n\n    function createPaper(string memory _title) public {\n        require(bytes(_title).length > 0);\n        Paper storage paper = papers.push();\n        paper.id = papers.length;\n        paper.title = _title;\n        paper.author = msg.sender;\n        emit PaperCreated(paper.id, _title, 0, msg.sender);\n    }\n\n    function addReviewer(uint _id, address payable _reviewer, string memory review) public {\n        require(_id < papers.length);\n        require(bytes(papers[_id].reviews[_reviewer]).length == 0);\n        require(_reviewer != papers[_id].author);\n        papers[_id].reviewers.push(_reviewer);\n        papers[_id].reviews[_reviewer] = review;\n        \n        if(!reviewerExists[_reviewer]){\n            reviewerExists[_reviewer] = true;\n            reviewers.push(_reviewer);\n        }\n\n        emit ReviewerAdded(_id, papers[_id].title, papers[_id].author, _reviewer);\n    }\n\n    function tipReviewer(uint _id, address payable _reviewer) public payable{\n        require(_id < papers.length);\n\n        papers[_id].tipAmount += msg.value;\n        _reviewer.transfer(msg.value);\n\n        emit ReviewerTipped(_id, papers[_id].title, msg.value, papers[_id].author, _reviewer);\n    }\n\n    function giveReputation(uint _id, address payable _reviewer) public payable{\n        require(_id < papers.length);\n        require(bytes(papers[_id].reviews[_reviewer]).length != 0);\n        string memory _hash = string(abi.encode(_id, _reviewer, msg.sender));\n        require(!hasGivenReputation[_hash]);\n        hasGivenReputation[_hash] = true;\n        reputationtoken.mint(_reviewer, REPUTATION);\n\n        emit ReputationGiven(_id,  _reviewer, msg.sender);\n    }\n\n    function undoGiveReputation(uint _id, address payable _reviewer) public payable{\n        require(_id < papers.length);\n        string memory _hash = string(abi.encode(_id, _reviewer, msg.sender));\n        require(hasGivenReputation[_hash]);\n        hasGivenReputation[_hash] = false;\n        reputationtoken.burn(_reviewer, REPUTATION);\n\n        emit ReputationTaken(_id,  _reviewer, msg.sender);\n    }\n\n    function getReputation(address _reviewer) public view returns (uint256) {\n        return reputationtoken.balanceOf(_reviewer);\n    }\n\n    function giveAward(uint _id, address payable _reviewer, uint _awardId ) public payable{\n        require(_id < papers.length);\n        require(_awardId < 4);\n        require(bytes(papers[_id].reviews[_reviewer]).length != 0);\n        string memory _hash = string(abi.encode(_id, _reviewer, msg.sender, _awardId));\n        require(!hasGivenAward[_hash]);\n        awardsToken.mint(_reviewer, _hash);\n        awards[_reviewer].push(_hash);\n\n        emit AwardGiven(_id,  _reviewer, msg.sender, _awardId);\n    }\n\n    function getAward(address _reviewer, uint _id) public view returns (Award memory){\n        string [] storage hashes = awards[_reviewer];\n        string memory _hash = hashes[_id];\n        Award memory a;\n        (a.id, a.reviewer, a.sender, a.awardId) = (abi.decode(bytes(_hash), (uint , address, address, uint)));\n        return a;\n    }\n\n    function getAwardsBalance(address _reviewer) public view returns (uint){\n        return awardsToken.balanceOf(_reviewer);\n    }\n\n    function getReviewers() public view returns (address [] memory){\n        return reviewers;\n    }\n\n    function getPaperReviewers(uint _id) public view returns (address [] memory){\n        require(_id < papers.length);\n        return papers[_id].reviewers;\n    }\n\n    function getPaperReviewsByReviewer(uint _id, address _reviewer) public view returns (string memory){\n        require(getPaperReviewerCount(_id) > 0);\n        return papers[_id].reviews[_reviewer];\n    }\n\n    function getPaperCount() public view returns (uint256) {\n        return papers.length;\n    }\n\n    function getReviewerCount() public view returns (uint256) {\n    return reviewers.length;\n    }\n\n    function getPaperReviewerCount(uint _id) public view returns (uint256) {\n        require(_id < papers.length);\n        return papers[_id].reviewers.length;\n    }\n}",
  "sourcePath": "/home/dani/bk/Rewards_c/contracts/Rewards.sol",
  "compiler": {
    "name": "solc",
    "version": "0.8.1+commit.df193b15.Emscripten.clang"
  },
  "schemaVersion": "3.3.3",
  "updatedAt": "2021-06-09T18:36:35.334Z",
  "networkType": "ethereum",
  "devdoc": {
    "kind": "dev",
    "methods": {},
    "version": 1
  },
  "userdoc": {
    "kind": "user",
    "methods": {},
    "version": 1
  }
}