{
  "contractName": "Rewards",
  "abi": [
    {
      "anonymous": false,
      "inputs": [
        {
          "indexed": false,
          "internalType": "uint256",
          "name": "id",
          "type": "uint256"
        },
        {
          "indexed": false,
          "internalType": "string",
          "name": "title",
          "type": "string"
        },
        {
          "indexed": false,
          "internalType": "uint256",
          "name": "tipAmount",
          "type": "uint256"
        },
        {
          "indexed": false,
          "internalType": "address",
          "name": "author",
          "type": "address"
        }
      ],
      "name": "PaperCreated",
      "type": "event"
    },
    {
      "anonymous": false,
      "inputs": [
        {
          "indexed": false,
          "internalType": "uint256",
          "name": "id",
          "type": "uint256"
        },
        {
          "indexed": false,
          "internalType": "address payable",
          "name": "reviewer",
          "type": "address"
        },
        {
          "indexed": false,
          "internalType": "address",
          "name": "user",
          "type": "address"
        }
      ],
      "name": "ReputationGiven",
      "type": "event"
    },
    {
      "anonymous": false,
      "inputs": [
        {
          "indexed": false,
          "internalType": "uint256",
          "name": "id",
          "type": "uint256"
        },
        {
          "indexed": false,
          "internalType": "address payable",
          "name": "reviewer",
          "type": "address"
        },
        {
          "indexed": false,
          "internalType": "address",
          "name": "user",
          "type": "address"
        }
      ],
      "name": "ReputationTaken",
      "type": "event"
    },
    {
      "anonymous": false,
      "inputs": [
        {
          "indexed": false,
          "internalType": "uint256",
          "name": "id",
          "type": "uint256"
        },
        {
          "indexed": false,
          "internalType": "string",
          "name": "title",
          "type": "string"
        },
        {
          "indexed": false,
          "internalType": "address",
          "name": "author",
          "type": "address"
        },
        {
          "indexed": false,
          "internalType": "address payable",
          "name": "reviewer",
          "type": "address"
        }
      ],
      "name": "ReviewerAdded",
      "type": "event"
    },
    {
      "anonymous": false,
      "inputs": [
        {
          "indexed": false,
          "internalType": "uint256",
          "name": "id",
          "type": "uint256"
        },
        {
          "indexed": false,
          "internalType": "string",
          "name": "title",
          "type": "string"
        },
        {
          "indexed": false,
          "internalType": "uint256",
          "name": "tipAmount",
          "type": "uint256"
        },
        {
          "indexed": false,
          "internalType": "address",
          "name": "author",
          "type": "address"
        },
        {
          "indexed": false,
          "internalType": "address payable",
          "name": "reviewer",
          "type": "address"
        }
      ],
      "name": "ReviewerTipped",
      "type": "event"
    },
    {
      "inputs": [],
      "name": "awardsToken",
      "outputs": [
        {
          "internalType": "contract AwardsToken",
          "name": "",
          "type": "address"
        }
      ],
      "stateMutability": "view",
      "type": "function"
    },
    {
      "inputs": [
        {
          "internalType": "string",
          "name": "",
          "type": "string"
        }
      ],
      "name": "hasGivenAward",
      "outputs": [
        {
          "internalType": "bool",
          "name": "",
          "type": "bool"
        }
      ],
      "stateMutability": "view",
      "type": "function"
    },
    {
      "inputs": [
        {
          "internalType": "string",
          "name": "",
          "type": "string"
        }
      ],
      "name": "hasGivenReputation",
      "outputs": [
        {
          "internalType": "bool",
          "name": "",
          "type": "bool"
        }
      ],
      "stateMutability": "view",
      "type": "function"
    },
    {
      "inputs": [
        {
          "internalType": "uint256",
          "name": "",
          "type": "uint256"
        }
      ],
      "name": "papers",
      "outputs": [
        {
          "internalType": "uint256",
          "name": "id",
          "type": "uint256"
        },
        {
          "internalType": "string",
          "name": "title",
          "type": "string"
        },
        {
          "internalType": "uint256",
          "name": "tipAmount",
          "type": "uint256"
        },
        {
          "internalType": "address",
          "name": "author",
          "type": "address"
        }
      ],
      "stateMutability": "view",
      "type": "function"
    },
    {
      "inputs": [],
      "name": "reputationtoken",
      "outputs": [
        {
          "internalType": "contract ReputationToken",
          "name": "",
          "type": "address"
        }
      ],
      "stateMutability": "view",
      "type": "function"
    },
    {
      "inputs": [
        {
          "internalType": "address",
          "name": "",
          "type": "address"
        }
      ],
      "name": "reviewerExists",
      "outputs": [
        {
          "internalType": "bool",
          "name": "",
          "type": "bool"
        }
      ],
      "stateMutability": "view",
      "type": "function"
    },
    {
      "inputs": [
        {
          "internalType": "uint256",
          "name": "",
          "type": "uint256"
        }
      ],
      "name": "reviewers",
      "outputs": [
        {
          "internalType": "address",
          "name": "",
          "type": "address"
        }
      ],
      "stateMutability": "view",
      "type": "function"
    },
    {
      "inputs": [
        {
          "internalType": "string",
          "name": "_title",
          "type": "string"
        }
      ],
      "name": "createPaper",
      "outputs": [],
      "stateMutability": "nonpayable",
      "type": "function"
    },
    {
      "inputs": [
        {
          "internalType": "uint256",
          "name": "_id",
          "type": "uint256"
        },
        {
          "internalType": "address payable",
          "name": "_reviewer",
          "type": "address"
        },
        {
          "internalType": "string",
          "name": "review",
          "type": "string"
        }
      ],
      "name": "addReviewer",
      "outputs": [],
      "stateMutability": "nonpayable",
      "type": "function"
    },
    {
      "inputs": [
        {
          "internalType": "uint256",
          "name": "_id",
          "type": "uint256"
        },
        {
          "internalType": "address payable",
          "name": "_reviewer",
          "type": "address"
        }
      ],
      "name": "tipReviewer",
      "outputs": [],
      "stateMutability": "payable",
      "type": "function"
    },
    {
      "inputs": [
        {
          "internalType": "uint256",
          "name": "_id",
          "type": "uint256"
        },
        {
          "internalType": "address payable",
          "name": "_reviewer",
          "type": "address"
        }
      ],
      "name": "giveReputation",
      "outputs": [],
      "stateMutability": "payable",
      "type": "function"
    },
    {
      "inputs": [
        {
          "internalType": "uint256",
          "name": "_id",
          "type": "uint256"
        },
        {
          "internalType": "address payable",
          "name": "_reviewer",
          "type": "address"
        }
      ],
      "name": "undoGiveReputation",
      "outputs": [],
      "stateMutability": "payable",
      "type": "function"
    },
    {
      "inputs": [
        {
          "internalType": "address",
          "name": "_reviewer",
          "type": "address"
        }
      ],
      "name": "getReputation",
      "outputs": [
        {
          "internalType": "uint256",
          "name": "",
          "type": "uint256"
        }
      ],
      "stateMutability": "view",
      "type": "function"
    },
    {
      "inputs": [
        {
          "internalType": "uint256",
          "name": "_id",
          "type": "uint256"
        },
        {
          "internalType": "address payable",
          "name": "_reviewer",
          "type": "address"
        },
        {
          "internalType": "uint256",
          "name": "_awardId",
          "type": "uint256"
        }
      ],
      "name": "giveAward",
      "outputs": [],
      "stateMutability": "payable",
      "type": "function"
    },
    {
      "inputs": [],
      "name": "getReviewers",
      "outputs": [
        {
          "internalType": "address[]",
          "name": "",
          "type": "address[]"
        }
      ],
      "stateMutability": "view",
      "type": "function"
    },
    {
      "inputs": [
        {
          "internalType": "uint256",
          "name": "_id",
          "type": "uint256"
        }
      ],
      "name": "getPaperReviewers",
      "outputs": [
        {
          "internalType": "address[]",
          "name": "",
          "type": "address[]"
        }
      ],
      "stateMutability": "view",
      "type": "function"
    },
    {
      "inputs": [
        {
          "internalType": "uint256",
          "name": "_id",
          "type": "uint256"
        },
        {
          "internalType": "address",
          "name": "_reviewer",
          "type": "address"
        }
      ],
      "name": "getPaperReviewsByReviewer",
      "outputs": [
        {
          "internalType": "string",
          "name": "",
          "type": "string"
        }
      ],
      "stateMutability": "view",
      "type": "function"
    },
    {
      "inputs": [],
      "name": "getPaperCount",
      "outputs": [
        {
          "internalType": "uint256",
          "name": "",
          "type": "uint256"
        }
      ],
      "stateMutability": "view",
      "type": "function"
    },
    {
      "inputs": [
        {
          "internalType": "uint256",
          "name": "_id",
          "type": "uint256"
        }
      ],
      "name": "getPaperReviewerCount",
      "outputs": [
        {
          "internalType": "uint256",
          "name": "",
          "type": "uint256"
        }
      ],
      "stateMutability": "view",
      "type": "function"
    }
  ],
  "bytecode": "0x608060405234801561001057600080fd5b5061216f806100206000396000f3fe6080604052600436106101145760003560e01c806375a87643116100a05780639cc616f6116100645780639cc616f6146103d4578063cc87c91e14610411578063dda7247b1461042d578063df4d693414610456578063ef5ddf781461049357610114565b806375a87643146102db5780638c9b5e63146103065780638e8814981461033157806390a10f741461036e5780639c89a0e21461039757610114565b8063316ed42e116100e7578063316ed42e146101cb5780633d7e97f2146102085780635c34e898146102335780635e775a271461025e57806361a5d6a81461029e57610114565b806305a378a2146101195780631789064f1461013557806327167bd514610151578063305dd39d1461018e575b600080fd5b610133600480360381019061012e919061187b565b6104af565b005b61014f600480360381019061014a91906117d8565b610664565b005b34801561015d57600080fd5b50610178600480360381019061017391906116e0565b610816565b6040516101859190611b5e565b60405180910390f35b34801561019a57600080fd5b506101b560048036038101906101b0919061174a565b610836565b6040516101c29190611b3c565b60405180910390f35b3480156101d757600080fd5b506101f260048036038101906101ed919061174a565b61090f565b6040516101ff9190611bd1565b60405180910390f35b34801561021457600080fd5b5061021d610978565b60405161022a9190611bd1565b60405180910390f35b34801561023f57600080fd5b50610248610985565b6040516102559190611b94565b60405180910390f35b34801561026a57600080fd5b506102856004803603810190610280919061174a565b6109ab565b6040516102959493929190611cb4565b60405180910390f35b3480156102aa57600080fd5b506102c560048036038101906102c09190611709565b610a93565b6040516102d29190611b5e565b60405180910390f35b3480156102e757600080fd5b506102f0610ac9565b6040516102fd9190611b3c565b60405180910390f35b34801561031257600080fd5b5061031b610b57565b6040516103289190611b79565b60405180910390f35b34801561033d57600080fd5b5061035860048036038101906103539190611709565b610b7d565b6040516103659190611b5e565b60405180910390f35b34801561037a57600080fd5b5061039560048036038101906103909190611709565b610bb3565b005b3480156103a357600080fd5b506103be60048036038101906103b991906116e0565b610c95565b6040516103cb9190611bd1565b60405180910390f35b3480156103e057600080fd5b506103fb60048036038101906103f6919061174a565b610d49565b6040516104089190611ac8565b60405180910390f35b61042b600480360381019061042691906117d8565b610d88565b005b34801561043957600080fd5b50610454600480360381019061044f9190611814565b610ec6565b005b34801561046257600080fd5b5061047d6004803603810190610478919061179c565b611270565b60405161048a9190611baf565b60405180910390f35b6104ad60048036038101906104a891906117d8565b6113a0565b005b60048054905083106104c057600080fd5b600481106104cd57600080fd5b600060048481548110610509577f4e487b7100000000000000000000000000000000000000000000000000000000600052603260045260246000fd5b906000526020600020906006020160050160008473ffffffffffffffffffffffffffffffffffffffff1673ffffffffffffffffffffffffffffffffffffffff168152602001908152602001600020805461056290611ff3565b9050141561056f57600080fd5b6000838333846040516020016105889493929190611c23565b60405160208183030381529060405290506001816040516105a99190611ab1565b908152602001604051809103902060009054906101000a900460ff16156105cf57600080fd5b600360009054906101000a900473ffffffffffffffffffffffffffffffffffffffff1673ffffffffffffffffffffffffffffffffffffffff1663d0def52184836040518363ffffffff1660e01b815260040161062c929190611ae3565b600060405180830381600087803b15801561064657600080fd5b505af115801561065a573d6000803e3d6000fd5b5050505050505050565b600480549050821061067557600080fd5b34600483815481106106b0577f4e487b7100000000000000000000000000000000000000000000000000000000600052603260045260246000fd5b906000526020600020906006020160020160008282546106d09190611e71565b925050819055508073ffffffffffffffffffffffffffffffffffffffff166108fc349081150290604051600060405180830381858888f1935050505015801561071d573d6000803e3d6000fd5b507f53f38d23892c8f39da949a3f0104a3792f839931ef190898ad7535f1109b39bb826004848154811061077a577f4e487b7100000000000000000000000000000000000000000000000000000000600052603260045260246000fd5b906000526020600020906006020160010134600486815481106107c6577f4e487b7100000000000000000000000000000000000000000000000000000000600052603260045260246000fd5b906000526020600020906006020160030160009054906101000a900473ffffffffffffffffffffffffffffffffffffffff168560405161080a959493929190611d4c565b60405180910390a15050565b60056020528060005260406000206000915054906101000a900460ff1681565b606060048281548110610872577f4e487b7100000000000000000000000000000000000000000000000000000000600052603260045260246000fd5b906000526020600020906006020160040180548060200260200160405190810160405280929190818152602001828054801561090357602002820191906000526020600020905b8160009054906101000a900473ffffffffffffffffffffffffffffffffffffffff1673ffffffffffffffffffffffffffffffffffffffff16815260200190600101908083116108b9575b50505050509050919050565b6000600480549050821061092257600080fd5b6004828154811061095c577f4e487b7100000000000000000000000000000000000000000000000000000000600052603260045260246000fd5b9060005260206000209060060201600401805490509050919050565b6000600480549050905090565b600260009054906101000a900473ffffffffffffffffffffffffffffffffffffffff1681565b600481815481106109bb57600080fd5b90600052602060002090600602016000915090508060000154908060010180546109e490611ff3565b80601f0160208091040260200160405190810160405280929190818152602001828054610a1090611ff3565b8015610a5d5780601f10610a3257610100808354040283529160200191610a5d565b820191906000526020600020905b815481529060010190602001808311610a4057829003601f168201915b5050505050908060020154908060030160009054906101000a900473ffffffffffffffffffffffffffffffffffffffff16905084565b6000818051602081018201805184825260208301602085012081835280955050505050506000915054906101000a900460ff1681565b60606006805480602002602001604051908101604052809291908181526020018280548015610b4d57602002820191906000526020600020905b8160009054906101000a900473ffffffffffffffffffffffffffffffffffffffff1673ffffffffffffffffffffffffffffffffffffffff1681526020019060010190808311610b03575b5050505050905090565b600360009054906101000a900473ffffffffffffffffffffffffffffffffffffffff1681565b6001818051602081018201805184825260208301602085012081835280955050505050506000915054906101000a900460ff1681565b6000815111610bc157600080fd5b600060046001816001815401808255809150500390600052602060002090600602019050600480549050816000018190555081816001019080519060200190610c0b929190611581565b50338160030160006101000a81548173ffffffffffffffffffffffffffffffffffffffff021916908373ffffffffffffffffffffffffffffffffffffffff1602179055507f75dbed2f4b10560e83c412e477ae7d3cc865ad4b331fd9d3bedb9d1caf36b149816000015483600033604051610c899493929190611c68565b60405180910390a15050565b6000600260009054906101000a900473ffffffffffffffffffffffffffffffffffffffff1673ffffffffffffffffffffffffffffffffffffffff166370a08231836040518263ffffffff1660e01b8152600401610cf29190611ac8565b60206040518083038186803b158015610d0a57600080fd5b505afa158015610d1e573d6000803e3d6000fd5b505050506040513d601f19601f82011682018060405250810190610d429190611773565b9050919050565b60068181548110610d5957600080fd5b906000526020600020016000915054906101000a900473ffffffffffffffffffffffffffffffffffffffff1681565b6004805490508210610d9957600080fd5b6000828233604051602001610db093929190611bec565b6040516020818303038152906040529050600081604051610dd19190611ab1565b908152602001604051809103902060009054906101000a900460ff16610df657600080fd5b600260009054906101000a900473ffffffffffffffffffffffffffffffffffffffff1673ffffffffffffffffffffffffffffffffffffffff16639dc29fac8360016040518363ffffffff1660e01b8152600401610e54929190611b13565b600060405180830381600087803b158015610e6e57600080fd5b505af1158015610e82573d6000803e3d6000fd5b505050507f0c66462458ff8502ad0c2b7b30cbaf36c2f45a0c352050ec68a1380d4b623ac6838333604051610eb993929190611bec565b60405180910390a1505050565b6004805490508310610ed757600080fd5b60048381548110610f11577f4e487b7100000000000000000000000000000000000000000000000000000000600052603260045260246000fd5b906000526020600020906006020160030160009054906101000a900473ffffffffffffffffffffffffffffffffffffffff1673ffffffffffffffffffffffffffffffffffffffff168273ffffffffffffffffffffffffffffffffffffffff161415610f7b57600080fd5b60048381548110610fb5577f4e487b7100000000000000000000000000000000000000000000000000000000600052603260045260246000fd5b9060005260206000209060060201600401829080600181540180825580915050600190039060005260206000200160009091909190916101000a81548173ffffffffffffffffffffffffffffffffffffffff021916908373ffffffffffffffffffffffffffffffffffffffff1602179055508060048481548110611062577f4e487b7100000000000000000000000000000000000000000000000000000000600052603260045260246000fd5b906000526020600020906006020160050160008473ffffffffffffffffffffffffffffffffffffffff1673ffffffffffffffffffffffffffffffffffffffff16815260200190815260200160002090805190602001906110c3929190611581565b50600560008373ffffffffffffffffffffffffffffffffffffffff1673ffffffffffffffffffffffffffffffffffffffff16815260200190815260200160002060009054906101000a900460ff16611179576006829080600181540180825580915050600190039060005260206000200160009091909190916101000a81548173ffffffffffffffffffffffffffffffffffffffff021916908373ffffffffffffffffffffffffffffffffffffffff1602179055505b7fda9d9532306ca391b9faab97df298b4a4ab517627ee3457239579de84f5acbd683600485815481106111d5577f4e487b7100000000000000000000000000000000000000000000000000000000600052603260045260246000fd5b906000526020600020906006020160010160048681548110611220577f4e487b7100000000000000000000000000000000000000000000000000000000600052603260045260246000fd5b906000526020600020906006020160030160009054906101000a900473ffffffffffffffffffffffffffffffffffffffff16856040516112639493929190611d00565b60405180910390a1505050565b6060600061127d8461090f565b1161128757600080fd5b600483815481106112c1577f4e487b7100000000000000000000000000000000000000000000000000000000600052603260045260246000fd5b906000526020600020906006020160050160008373ffffffffffffffffffffffffffffffffffffffff1673ffffffffffffffffffffffffffffffffffffffff168152602001908152602001600020805461131a90611ff3565b80601f016020809104026020016040519081016040528092919081815260200182805461134690611ff3565b80156113935780601f1061136857610100808354040283529160200191611393565b820191906000526020600020905b81548152906001019060200180831161137657829003601f168201915b5050505050905092915050565b60048054905082106113b157600080fd5b6000600483815481106113ed577f4e487b7100000000000000000000000000000000000000000000000000000000600052603260045260246000fd5b906000526020600020906006020160050160008373ffffffffffffffffffffffffffffffffffffffff1673ffffffffffffffffffffffffffffffffffffffff168152602001908152602001600020805461144690611ff3565b9050141561145357600080fd5b600082823360405160200161146a93929190611bec565b604051602081830303815290604052905060008160405161148b9190611ab1565b908152602001604051809103902060009054906101000a900460ff16156114b157600080fd5b600260009054906101000a900473ffffffffffffffffffffffffffffffffffffffff1673ffffffffffffffffffffffffffffffffffffffff166340c10f198360016040518363ffffffff1660e01b815260040161150f929190611b13565b600060405180830381600087803b15801561152957600080fd5b505af115801561153d573d6000803e3d6000fd5b505050507fb0e2fdeb939f7c4bd17f4b82804b0a050950d5ccaaf3aa22206ea5b80bcdb91483833360405161157493929190611bec565b60405180910390a1505050565b82805461158d90611ff3565b90600052602060002090601f0160209004810192826115af57600085556115f6565b82601f106115c857805160ff19168380011785556115f6565b828001600101855582156115f6579182015b828111156115f55782518255916020019190600101906115da565b5b5090506116039190611607565b5090565b5b80821115611620576000816000905550600101611608565b5090565b600061163761163284611dcb565b611da6565b90508281526020810184848401111561164f57600080fd5b61165a848285611fb1565b509392505050565b600081359050611671816120f4565b92915050565b6000813590506116868161210b565b92915050565b600082601f83011261169d57600080fd5b81356116ad848260208601611624565b91505092915050565b6000813590506116c581612122565b92915050565b6000815190506116da81612122565b92915050565b6000602082840312156116f257600080fd5b600061170084828501611662565b91505092915050565b60006020828403121561171b57600080fd5b600082013567ffffffffffffffff81111561173557600080fd5b6117418482850161168c565b91505092915050565b60006020828403121561175c57600080fd5b600061176a848285016116b6565b91505092915050565b60006020828403121561178557600080fd5b6000611793848285016116cb565b91505092915050565b600080604083850312156117af57600080fd5b60006117bd858286016116b6565b92505060206117ce85828601611662565b9150509250929050565b600080604083850312156117eb57600080fd5b60006117f9858286016116b6565b925050602061180a85828601611677565b9150509250929050565b60008060006060848603121561182957600080fd5b6000611837868287016116b6565b935050602061184886828701611677565b925050604084013567ffffffffffffffff81111561186557600080fd5b6118718682870161168c565b9150509250925092565b60008060006060848603121561189057600080fd5b600061189e868287016116b6565b93505060206118af86828701611677565b92505060406118c0868287016116b6565b9150509250925092565b60006118d68383611900565b60208301905092915050565b6118eb81611f21565b82525050565b6118fa81611ed9565b82525050565b61190981611ec7565b82525050565b61191881611ec7565b82525050565b600061192982611e21565b6119338185611e44565b935061193e83611dfc565b8060005b8381101561196f57815161195688826118ca565b975061196183611e37565b925050600181019050611942565b5085935050505092915050565b61198581611eeb565b82525050565b61199481611f33565b82525050565b6119a381611f57565b82525050565b6119b281611f7b565b82525050565b60006119c382611e2c565b6119cd8185611e55565b93506119dd818560208601611fc0565b6119e6816120e3565b840191505092915050565b60006119fc82611e2c565b611a068185611e66565b9350611a16818560208601611fc0565b80840191505092915050565b60008154611a2f81611ff3565b611a398186611e55565b94506001821660008114611a545760018114611a6657611a99565b60ff1983168652602086019350611a99565b611a6f85611e0c565b60005b83811015611a9157815481890152600182019150602081019050611a72565b808801955050505b50505092915050565b611aab81611f17565b82525050565b6000611abd82846119f1565b915081905092915050565b6000602082019050611add600083018461190f565b92915050565b6000604082019050611af860008301856118e2565b8181036020830152611b0a81846119b8565b90509392505050565b6000604082019050611b2860008301856118e2565b611b356020830184611aa2565b9392505050565b60006020820190508181036000830152611b56818461191e565b905092915050565b6000602082019050611b73600083018461197c565b92915050565b6000602082019050611b8e600083018461198b565b92915050565b6000602082019050611ba9600083018461199a565b92915050565b60006020820190508181036000830152611bc981846119b8565b905092915050565b6000602082019050611be66000830184611aa2565b92915050565b6000606082019050611c016000830186611aa2565b611c0e60208301856118f1565b611c1b604083018461190f565b949350505050565b6000608082019050611c386000830187611aa2565b611c4560208301866118f1565b611c52604083018561190f565b611c5f6060830184611aa2565b95945050505050565b6000608082019050611c7d6000830187611aa2565b8181036020830152611c8f81866119b8565b9050611c9e60408301856119a9565b611cab606083018461190f565b95945050505050565b6000608082019050611cc96000830187611aa2565b8181036020830152611cdb81866119b8565b9050611cea6040830185611aa2565b611cf7606083018461190f565b95945050505050565b6000608082019050611d156000830187611aa2565b8181036020830152611d278186611a22565b9050611d36604083018561190f565b611d4360608301846118f1565b95945050505050565b600060a082019050611d616000830188611aa2565b8181036020830152611d738187611a22565b9050611d826040830186611aa2565b611d8f606083018561190f565b611d9c60808301846118f1565b9695505050505050565b6000611db0611dc1565b9050611dbc8282612025565b919050565b6000604051905090565b600067ffffffffffffffff821115611de657611de56120b4565b5b611def826120e3565b9050602081019050919050565b6000819050602082019050919050565b60008190508160005260206000209050919050565b600081519050919050565b600081519050919050565b6000602082019050919050565b600082825260208201905092915050565b600082825260208201905092915050565b600081905092915050565b6000611e7c82611f17565b9150611e8783611f17565b9250827fffffffffffffffffffffffffffffffffffffffffffffffffffffffffffffffff03821115611ebc57611ebb612056565b5b828201905092915050565b6000611ed282611ef7565b9050919050565b6000611ee482611ef7565b9050919050565b60008115159050919050565b600073ffffffffffffffffffffffffffffffffffffffff82169050919050565b6000819050919050565b6000611f2c82611f8d565b9050919050565b6000611f3e82611f45565b9050919050565b6000611f5082611ef7565b9050919050565b6000611f6282611f69565b9050919050565b6000611f7482611ef7565b9050919050565b6000611f8682611f17565b9050919050565b6000611f9882611f9f565b9050919050565b6000611faa82611ef7565b9050919050565b82818337600083830152505050565b60005b83811015611fde578082015181840152602081019050611fc3565b83811115611fed576000848401525b50505050565b6000600282049050600182168061200b57607f821691505b6020821081141561201f5761201e612085565b5b50919050565b61202e826120e3565b810181811067ffffffffffffffff8211171561204d5761204c6120b4565b5b80604052505050565b7f4e487b7100000000000000000000000000000000000000000000000000000000600052601160045260246000fd5b7f4e487b7100000000000000000000000000000000000000000000000000000000600052602260045260246000fd5b7f4e487b7100000000000000000000000000000000000000000000000000000000600052604160045260246000fd5b6000601f19601f8301169050919050565b6120fd81611ec7565b811461210857600080fd5b50565b61211481611ed9565b811461211f57600080fd5b50565b61212b81611f17565b811461213657600080fd5b5056fea264697066735822122095ffe97a99a23a8465f6be49758b67c221f4f8b2f5e16ea1505dac995b55d95d64736f6c63430008010033",
  "immutableReferences": {},
  "source": "pragma solidity ^0.8.0;\r\n\r\nimport \"./ReputationToken.sol\";\r\nimport \"./AwardsToken.sol\";\r\n\r\nuint constant REPUTATION = 1;\r\n\r\ncontract Rewards {\r\n    mapping(string => bool) public hasGivenReputation;\r\n    mapping(string => bool) public hasGivenAward;\r\n    ReputationToken public reputationtoken;\r\n    AwardsToken public awardsToken;\r\n\r\n    //TODO: asociar reviews, registrar reviewer\r\n\r\n    struct Paper {\r\n        uint id;\r\n        string title;\r\n        uint tipAmount;\r\n        address author;\r\n        address[] reviewers;\r\n        mapping(address => string) reviews;\r\n    }\r\n\r\n    Paper[] public papers;\r\n    mapping(address => bool) public reviewerExists;\r\n    address[] public reviewers;\r\n\r\n    event PaperCreated(\r\n        uint id,\r\n        string title,\r\n        uint tipAmount,\r\n        address author\r\n    );\r\n\r\n    event ReviewerAdded(\r\n        uint id,\r\n        string title,\r\n        address author,\r\n        address payable reviewer\r\n    );\r\n\r\n    event ReviewerTipped(\r\n        uint id,\r\n        string title,\r\n        uint tipAmount,\r\n        address author,\r\n        address payable reviewer\r\n    );\r\n\r\n    event ReputationGiven(\r\n        uint id,\r\n        address payable reviewer,\r\n        address user\r\n    );\r\n\r\n    event ReputationTaken(\r\n        uint id,\r\n        address payable reviewer,\r\n        address user\r\n    );\r\n\r\n    function createPaper(string memory _title) public {\r\n        require(bytes(_title).length > 0);\r\n        Paper storage paper = papers.push();\r\n        paper.id = papers.length;\r\n        paper.title = _title;\r\n        paper.author = msg.sender;\r\n        emit PaperCreated(paper.id, _title, 0, msg.sender);\r\n    }\r\n\r\n    function addReviewer(uint _id, address payable _reviewer, string memory review) public {\r\n        require(_id < papers.length);\r\n        require(_reviewer != papers[_id].author);\r\n        papers[_id].reviewers.push(_reviewer);\r\n        papers[_id].reviews[_reviewer] = review;\r\n        \r\n        if(!reviewerExists[_reviewer]){\r\n            reviewers.push(_reviewer);\r\n        }\r\n\r\n        emit ReviewerAdded(_id, papers[_id].title, papers[_id].author, _reviewer);\r\n    }\r\n\r\n    function tipReviewer(uint _id, address payable _reviewer) public payable{\r\n        require(_id < papers.length);\r\n\r\n        papers[_id].tipAmount += msg.value;\r\n        _reviewer.transfer(msg.value);\r\n\r\n        emit ReviewerTipped(_id, papers[_id].title, msg.value, papers[_id].author, _reviewer);\r\n    }\r\n\r\n    function giveReputation(uint _id, address payable _reviewer) public payable{\r\n        require(_id < papers.length);\r\n        require(bytes(papers[_id].reviews[_reviewer]).length != 0);\r\n        string memory _hash = string(abi.encode(_id, _reviewer, msg.sender));\r\n        require(!hasGivenReputation[_hash]);\r\n        reputationtoken.mint(_reviewer, REPUTATION);\r\n\r\n        emit ReputationGiven(_id,  _reviewer, msg.sender);\r\n    }\r\n\r\n    function undoGiveReputation(uint _id, address payable _reviewer) public payable{\r\n        require(_id < papers.length);\r\n        string memory _hash = string(abi.encode(_id, _reviewer, msg.sender));\r\n        require(hasGivenReputation[_hash]);\r\n        reputationtoken.burn(_reviewer, REPUTATION);\r\n\r\n        emit ReputationTaken(_id,  _reviewer, msg.sender);\r\n    }\r\n\r\n    function getReputation(address _reviewer) public view returns (uint256) {\r\n        return reputationtoken.balanceOf(_reviewer);\r\n    }\r\n\r\n    //TODO test and event\r\n    function giveAward(uint _id, address payable _reviewer, uint _awardId ) public payable{\r\n        require(_id < papers.length);\r\n        require(_awardId < 4);\r\n        require(bytes(papers[_id].reviews[_reviewer]).length != 0);\r\n        string memory _hash = string(abi.encode(_id, _reviewer, msg.sender, _awardId));\r\n        require(!hasGivenAward[_hash]);\r\n        awardsToken.mint(_reviewer, _hash);\r\n\r\n        //emit ReputationGiven(_id,  _reviewer, msg.sender);\r\n    }\r\n\r\n    function getReviewers() public view returns (address [] memory){\r\n        return reviewers;\r\n    }\r\n    function getPaperReviewers(uint _id) public view returns (address [] memory){\r\n        return papers[_id].reviewers;\r\n    }\r\n\r\n    function getPaperReviewsByReviewer(uint _id, address _reviewer) public view returns (string memory){\r\n        require(getPaperReviewerCount(_id) > 0);\r\n        return papers[_id].reviews[_reviewer];\r\n    }\r\n\r\n    function getPaperCount() public view returns (uint256) {\r\n        return papers.length;\r\n    }\r\n\r\n    function getPaperReviewerCount(uint _id) public view returns (uint256) {\r\n        require(_id < papers.length);\r\n        return papers[_id].reviewers.length;\r\n    }\r\n}",
  "sourcePath": "C:/Users/Pablo/Desktop/Rewards/contracts/Rewards.sol",
  "compiler": {
    "name": "solc",
    "version": "0.8.1+commit.df193b15.Emscripten.clang"
  },
  "schemaVersion": "3.3.3",
  "updatedAt": "2021-03-25T20:53:48.899Z",
  "devdoc": {
    "kind": "dev",
    "methods": {},
    "version": 1
  },
  "userdoc": {
    "kind": "user",
    "methods": {},
    "version": 1
  }
}