{
  "contractName": "Rewards",
  "abi": [
    {
      "constant": true,
      "inputs": [
        {
          "name": "",
          "type": "uint256"
        }
      ],
      "name": "papers",
      "outputs": [
        {
          "name": "id",
          "type": "uint256"
        },
        {
          "name": "title",
          "type": "string"
        },
        {
          "name": "tipAmount",
          "type": "uint256"
        },
        {
          "name": "author",
          "type": "address"
        },
        {
          "name": "reviewer",
          "type": "address"
        }
      ],
      "payable": false,
      "stateMutability": "view",
      "type": "function",
      "signature": "0x5e775a27"
    },
    {
      "constant": true,
      "inputs": [],
      "name": "paperCount",
      "outputs": [
        {
          "name": "",
          "type": "uint256"
        }
      ],
      "payable": false,
      "stateMutability": "view",
      "type": "function",
      "signature": "0xa56c2cb9"
    },
    {
      "anonymous": false,
      "inputs": [
        {
          "indexed": false,
          "name": "id",
          "type": "uint256"
        },
        {
          "indexed": false,
          "name": "title",
          "type": "string"
        },
        {
          "indexed": false,
          "name": "tipAmount",
          "type": "uint256"
        },
        {
          "indexed": false,
          "name": "author",
          "type": "address"
        },
        {
          "indexed": false,
          "name": "reviewer",
          "type": "address"
        }
      ],
      "name": "PaperCreated",
      "type": "event",
      "signature": "0xd9d0d001c6807db086c0bd0e5cbcd0a0caccdc7dea633917d21d634c8b19963c"
    },
    {
      "anonymous": false,
      "inputs": [
        {
          "indexed": false,
          "name": "id",
          "type": "uint256"
        },
        {
          "indexed": false,
          "name": "title",
          "type": "string"
        },
        {
          "indexed": false,
          "name": "tipAmount",
          "type": "uint256"
        },
        {
          "indexed": false,
          "name": "author",
          "type": "address"
        },
        {
          "indexed": false,
          "name": "reviewer",
          "type": "address"
        }
      ],
      "name": "PaperTipped",
      "type": "event",
      "signature": "0xdb8dd63a5a238451c4470286cc17701aecec5a43e2a186a28fea53ae8bb380f2"
    },
    {
      "constant": false,
      "inputs": [
        {
          "name": "_title",
          "type": "string"
        },
        {
          "name": "_reviewer",
          "type": "address"
        }
      ],
      "name": "createPaper",
      "outputs": [],
      "payable": false,
      "stateMutability": "nonpayable",
      "type": "function",
      "signature": "0xc2be0b50"
    },
    {
      "constant": false,
      "inputs": [
        {
          "name": "_id",
          "type": "uint256"
        }
      ],
      "name": "tipPaper",
      "outputs": [],
      "payable": true,
      "stateMutability": "payable",
      "type": "function",
      "signature": "0x476e0327"
    }
  ],
  "bytecode": "0x60806040526000805534801561001457600080fd5b50610b72806100246000396000f3fe608060405260043610610062576000357c0100000000000000000000000000000000000000000000000000000000900463ffffffff168063476e0327146100675780635e775a2714610095578063a56c2cb9146101bd578063c2be0b50146101e8575b600080fd5b6100936004803603602081101561007d57600080fd5b81019080803590602001909291905050506102d0565b005b3480156100a157600080fd5b506100ce600480360360208110156100b857600080fd5b81019080803590602001909291905050506106c8565b60405180868152602001806020018581526020018473ffffffffffffffffffffffffffffffffffffffff1673ffffffffffffffffffffffffffffffffffffffff1681526020018373ffffffffffffffffffffffffffffffffffffffff1673ffffffffffffffffffffffffffffffffffffffff168152602001828103825286818151815260200191508051906020019080838360005b8381101561017e578082015181840152602081019050610163565b50505050905090810190601f1680156101ab5780820380516001836020036101000a031916815260200191505b50965050505050505060405180910390f35b3480156101c957600080fd5b506101d26107d6565b6040518082815260200191505060405180910390f35b3480156101f457600080fd5b506102ce6004803603604081101561020b57600080fd5b810190808035906020019064010000000081111561022857600080fd5b82018360208201111561023a57600080fd5b8035906020019184600183028401116401000000008311171561025c57600080fd5b91908080601f016020809104026020016040519081016040528093929190818152602001838380828437600081840152601f19601f820116905080830192505050505050509192919290803573ffffffffffffffffffffffffffffffffffffffff1690602001909291905050506107dc565b005b600054811015156102e057600080fd5b6102e8610a45565b6001600083815260200190815260200160002060a0604051908101604052908160008201548152602001600182018054600181600116156101000203166002900480601f0160208091040260200160405190810160405280929190818152602001828054600181600116156101000203166002900480156103aa5780601f1061037f576101008083540402835291602001916103aa565b820191906000526020600020905b81548152906001019060200180831161038d57829003601f168201915b50505050508152602001600282015481526020016003820160009054906101000a900473ffffffffffffffffffffffffffffffffffffffff1673ffffffffffffffffffffffffffffffffffffffff1673ffffffffffffffffffffffffffffffffffffffff1681526020016004820160009054906101000a900473ffffffffffffffffffffffffffffffffffffffff1673ffffffffffffffffffffffffffffffffffffffff1673ffffffffffffffffffffffffffffffffffffffff16815250509050600081608001519050348260400181815101915081815250508073ffffffffffffffffffffffffffffffffffffffff166108fc349081150290604051600060405180830381858888f193505050501580156104ca573d6000803e3d6000fd5b508160016000858152602001908152602001600020600082015181600001556020820151816001019080519060200190610505929190610aa1565b506040820151816002015560608201518160030160006101000a81548173ffffffffffffffffffffffffffffffffffffffff021916908373ffffffffffffffffffffffffffffffffffffffff16021790555060808201518160040160006101000a81548173ffffffffffffffffffffffffffffffffffffffff021916908373ffffffffffffffffffffffffffffffffffffffff1602179055509050507fdb8dd63a5a238451c4470286cc17701aecec5a43e2a186a28fea53ae8bb380f26000548360200151846040015185606001518560405180868152602001806020018581526020018473ffffffffffffffffffffffffffffffffffffffff1673ffffffffffffffffffffffffffffffffffffffff1681526020018373ffffffffffffffffffffffffffffffffffffffff1673ffffffffffffffffffffffffffffffffffffffff168152602001828103825286818151815260200191508051906020019080838360005b8381101561068557808201518184015260208101905061066a565b50505050905090810190601f1680156106b25780820380516001836020036101000a031916815260200191505b50965050505050505060405180910390a1505050565b6001602052806000526040600020600091509050806000015490806001018054600181600116156101000203166002900480601f01602080910402602001604051908101604052809291908181526020018280546001816001161561010002031660029004801561077a5780601f1061074f5761010080835404028352916020019161077a565b820191906000526020600020905b81548152906001019060200180831161075d57829003601f168201915b5050505050908060020154908060030160009054906101000a900473ffffffffffffffffffffffffffffffffffffffff16908060040160009054906101000a900473ffffffffffffffffffffffffffffffffffffffff16905085565b60005481565b600082511115156107ec57600080fd5b60a0604051908101604052806000548152602001838152602001600081526020013373ffffffffffffffffffffffffffffffffffffffff1681526020018273ffffffffffffffffffffffffffffffffffffffff16815250600160008054815260200190815260200160002060008201518160000155602082015181600101908051906020019061087d929190610aa1565b506040820151816002015560608201518160030160006101000a81548173ffffffffffffffffffffffffffffffffffffffff021916908373ffffffffffffffffffffffffffffffffffffffff16021790555060808201518160040160006101000a81548173ffffffffffffffffffffffffffffffffffffffff021916908373ffffffffffffffffffffffffffffffffffffffff1602179055509050507fd9d0d001c6807db086c0bd0e5cbcd0a0caccdc7dea633917d21d634c8b19963c600054836000338560405180868152602001806020018581526020018473ffffffffffffffffffffffffffffffffffffffff1673ffffffffffffffffffffffffffffffffffffffff1681526020018373ffffffffffffffffffffffffffffffffffffffff1673ffffffffffffffffffffffffffffffffffffffff168152602001828103825286818151815260200191508051906020019080838360005b838110156109f25780820151818401526020810190506109d7565b50505050905090810190601f168015610a1f5780820380516001836020036101000a031916815260200191505b50965050505050505060405180910390a160008081548092919060010191905055505050565b60a060405190810160405280600081526020016060815260200160008152602001600073ffffffffffffffffffffffffffffffffffffffff168152602001600073ffffffffffffffffffffffffffffffffffffffff1681525090565b828054600181600116156101000203166002900490600052602060002090601f016020900481019282601f10610ae257805160ff1916838001178555610b10565b82800160010185558215610b10579182015b82811115610b0f578251825591602001919060010190610af4565b5b509050610b1d9190610b21565b5090565b610b4391905b80821115610b3f576000816000905550600101610b27565b5090565b9056fea165627a7a72305820cc169b0994d4b06bba4e9c911fb530f2d2e5e72822f0c389055e6422ab0c3efc0029",
  "source": "pragma solidity >=0.4.21 <0.7.0;\r\n\r\ncontract Rewards {\r\n    uint public paperCount = 0;\r\n    mapping(uint => Paper) public papers;\r\n\r\n\r\n    struct Paper {\r\n        uint id;\r\n        string title;\r\n        uint tipAmount;\r\n        address author;\r\n        address payable reviewer;\r\n    }\r\n\r\n    event PaperCreated(\r\n        uint id,\r\n        string title,\r\n        uint tipAmount,\r\n        address author,\r\n        address payable reviewer\r\n    );\r\n\r\n    event PaperTipped(\r\n        uint id,\r\n        string title,\r\n        uint tipAmount,\r\n        address author,\r\n        address payable reviewer\r\n    );\r\n\r\n    function createPaper(string memory _title, address payable _reviewer) public {\r\n        require(bytes(_title).length > 0);\r\n        papers[paperCount] = Paper(paperCount, _title, 0, msg.sender, _reviewer);\r\n        emit PaperCreated(paperCount, _title, 0, msg.sender, _reviewer);\r\n        paperCount++;\r\n    }\r\n\r\n    function tipPaper(uint _id) public payable{\r\n        require(_id < paperCount);\r\n        Paper memory _paper = papers[_id];\r\n\r\n        address payable _reviewer = _paper.reviewer;\r\n        _paper.tipAmount += msg.value;\r\n\r\n        address(_reviewer).transfer(msg.value);\r\n\r\n        papers[_id] = _paper;\r\n        emit PaperTipped(paperCount, _paper.title, _paper.tipAmount, _paper.author, _reviewer);\r\n    }\r\n}",
  "sourcePath": "C:/Users/carlo/Desktop/UCM/TFG/Rewards/contracts/Rewards.sol",
  "compiler": {
    "name": "solc",
    "version": "0.5.0+commit.1d4f565a.Emscripten.clang"
  },
  "schemaVersion": "3.0.2",
  "updatedAt": "2021-01-06T00:33:49.870Z",
  "devdoc": {
    "methods": {}
  },
  "userdoc": {
    "methods": {}
  }
}