{
  "contractName": "Rewards",
  "abi": [
    {
      "anonymous": false,
      "inputs": [
        {
          "indexed": false,
          "internalType": "uint256",
          "name": "id",
          "type": "uint256"
        },
        {
          "indexed": false,
          "internalType": "string",
          "name": "title",
          "type": "string"
        },
        {
          "indexed": false,
          "internalType": "uint256",
          "name": "tipAmount",
          "type": "uint256"
        },
        {
          "indexed": false,
          "internalType": "address",
          "name": "author",
          "type": "address"
        }
      ],
      "name": "PaperCreated",
      "type": "event"
    },
    {
      "anonymous": false,
      "inputs": [
        {
          "indexed": false,
          "internalType": "uint256",
          "name": "id",
          "type": "uint256"
        },
        {
          "indexed": false,
          "internalType": "address payable",
          "name": "reviewer",
          "type": "address"
        },
        {
          "indexed": false,
          "internalType": "address",
          "name": "user",
          "type": "address"
        }
      ],
      "name": "ReputationGiven",
      "type": "event"
    },
    {
      "anonymous": false,
      "inputs": [
        {
          "indexed": false,
          "internalType": "uint256",
          "name": "id",
          "type": "uint256"
        },
        {
          "indexed": false,
          "internalType": "address payable",
          "name": "reviewer",
          "type": "address"
        },
        {
          "indexed": false,
          "internalType": "address",
          "name": "user",
          "type": "address"
        }
      ],
      "name": "ReputationTaken",
      "type": "event"
    },
    {
      "anonymous": false,
      "inputs": [
        {
          "indexed": false,
          "internalType": "uint256",
          "name": "id",
          "type": "uint256"
        },
        {
          "indexed": false,
          "internalType": "string",
          "name": "title",
          "type": "string"
        },
        {
          "indexed": false,
          "internalType": "address",
          "name": "author",
          "type": "address"
        },
        {
          "indexed": false,
          "internalType": "address payable",
          "name": "reviewer",
          "type": "address"
        }
      ],
      "name": "ReviewerAdded",
      "type": "event"
    },
    {
      "anonymous": false,
      "inputs": [
        {
          "indexed": false,
          "internalType": "uint256",
          "name": "id",
          "type": "uint256"
        },
        {
          "indexed": false,
          "internalType": "string",
          "name": "title",
          "type": "string"
        },
        {
          "indexed": false,
          "internalType": "uint256",
          "name": "tipAmount",
          "type": "uint256"
        },
        {
          "indexed": false,
          "internalType": "address",
          "name": "author",
          "type": "address"
        },
        {
          "indexed": false,
          "internalType": "address payable",
          "name": "reviewer",
          "type": "address"
        }
      ],
      "name": "ReviewerTipped",
      "type": "event"
    },
    {
      "inputs": [],
      "name": "awardsToken",
      "outputs": [
        {
          "internalType": "contract AwardsToken",
          "name": "",
          "type": "address"
        }
      ],
      "stateMutability": "view",
      "type": "function",
      "constant": true
    },
    {
      "inputs": [
        {
          "internalType": "string",
          "name": "",
          "type": "string"
        }
      ],
      "name": "hasGivenAward",
      "outputs": [
        {
          "internalType": "bool",
          "name": "",
          "type": "bool"
        }
      ],
      "stateMutability": "view",
      "type": "function",
      "constant": true
    },
    {
      "inputs": [
        {
          "internalType": "string",
          "name": "",
          "type": "string"
        }
      ],
      "name": "hasGivenReputation",
      "outputs": [
        {
          "internalType": "bool",
          "name": "",
          "type": "bool"
        }
      ],
      "stateMutability": "view",
      "type": "function",
      "constant": true
    },
    {
      "inputs": [
        {
          "internalType": "uint256",
          "name": "",
          "type": "uint256"
        }
      ],
      "name": "papers",
      "outputs": [
        {
          "internalType": "uint256",
          "name": "id",
          "type": "uint256"
        },
        {
          "internalType": "string",
          "name": "title",
          "type": "string"
        },
        {
          "internalType": "uint256",
          "name": "tipAmount",
          "type": "uint256"
        },
        {
          "internalType": "address",
          "name": "author",
          "type": "address"
        }
      ],
      "stateMutability": "view",
      "type": "function",
      "constant": true
    },
    {
      "inputs": [],
      "name": "reputationtoken",
      "outputs": [
        {
          "internalType": "contract ReputationToken",
          "name": "",
          "type": "address"
        }
      ],
      "stateMutability": "view",
      "type": "function",
      "constant": true
    },
    {
      "inputs": [
        {
          "internalType": "string",
          "name": "_title",
          "type": "string"
        }
      ],
      "name": "createPaper",
      "outputs": [],
      "stateMutability": "nonpayable",
      "type": "function"
    },
    {
      "inputs": [
        {
          "internalType": "uint256",
          "name": "_id",
          "type": "uint256"
        },
        {
          "internalType": "address payable",
          "name": "_reviewer",
          "type": "address"
        },
        {
          "internalType": "string",
          "name": "review",
          "type": "string"
        }
      ],
      "name": "addReviewer",
      "outputs": [],
      "stateMutability": "nonpayable",
      "type": "function"
    },
    {
      "inputs": [
        {
          "internalType": "uint256",
          "name": "_id",
          "type": "uint256"
        },
        {
          "internalType": "address payable",
          "name": "_reviewer",
          "type": "address"
        }
      ],
      "name": "tipReviewer",
      "outputs": [],
      "stateMutability": "payable",
      "type": "function",
      "payable": true
    },
    {
      "inputs": [
        {
          "internalType": "uint256",
          "name": "_id",
          "type": "uint256"
        },
        {
          "internalType": "address payable",
          "name": "_reviewer",
          "type": "address"
        }
      ],
      "name": "giveReputation",
      "outputs": [],
      "stateMutability": "payable",
      "type": "function",
      "payable": true
    },
    {
      "inputs": [
        {
          "internalType": "uint256",
          "name": "_id",
          "type": "uint256"
        },
        {
          "internalType": "address payable",
          "name": "_reviewer",
          "type": "address"
        }
      ],
      "name": "undoGiveReputation",
      "outputs": [],
      "stateMutability": "payable",
      "type": "function",
      "payable": true
    },
    {
      "inputs": [
        {
          "internalType": "address",
          "name": "_reviewer",
          "type": "address"
        }
      ],
      "name": "getReputation",
      "outputs": [
        {
          "internalType": "uint256",
          "name": "",
          "type": "uint256"
        }
      ],
      "stateMutability": "view",
      "type": "function",
      "constant": true
    },
    {
      "inputs": [
        {
          "internalType": "uint256",
          "name": "_id",
          "type": "uint256"
        },
        {
          "internalType": "address payable",
          "name": "_reviewer",
          "type": "address"
        },
        {
          "internalType": "uint256",
          "name": "_awardId",
          "type": "uint256"
        }
      ],
      "name": "giveAward",
      "outputs": [],
      "stateMutability": "payable",
      "type": "function",
      "payable": true
    },
    {
      "inputs": [
        {
          "internalType": "uint256",
          "name": "_id",
          "type": "uint256"
        }
      ],
      "name": "getReviewers",
      "outputs": [
        {
          "internalType": "address[]",
          "name": "",
          "type": "address[]"
        }
      ],
      "stateMutability": "view",
      "type": "function",
      "constant": true
    },
    {
      "inputs": [
        {
          "internalType": "uint256",
          "name": "_id",
          "type": "uint256"
        },
        {
          "internalType": "address",
          "name": "_reviewer",
          "type": "address"
        }
      ],
      "name": "getReviews",
      "outputs": [
        {
          "internalType": "string",
          "name": "",
          "type": "string"
        }
      ],
      "stateMutability": "view",
      "type": "function",
      "constant": true
    },
    {
      "inputs": [],
      "name": "paperCount",
      "outputs": [
        {
          "internalType": "uint256",
          "name": "",
          "type": "uint256"
        }
      ],
      "stateMutability": "view",
      "type": "function",
      "constant": true
    },
    {
      "inputs": [
        {
          "internalType": "uint256",
          "name": "_id",
          "type": "uint256"
        }
      ],
      "name": "reviewerCount",
      "outputs": [
        {
          "internalType": "uint256",
          "name": "",
          "type": "uint256"
        }
      ],
      "stateMutability": "view",
      "type": "function",
      "constant": true
    }
  ],
  "bytecode": "0x608060405234801561001057600080fd5b50611f07806100206000396000f3fe6080604052600436106100f35760003560e01c80638e8814981161008a578063cc87c91e11610059578063cc87c91e1461034b578063d36e1f0a14610367578063dda7247b146103a4578063ef5ddf78146103cd576100f3565b80638e8814981461027d57806390a10f74146102ba5780639c89a0e2146102e3578063a56c2cb914610320576100f3565b80635c34e898116100c65780635c34e898146101aa5780635e775a27146101d557806361a5d6a8146102155780638c9b5e6314610252576100f3565b806302afb4b4146100f857806305a378a21461013557806308673191146101515780631789064f1461018e575b600080fd5b34801561010457600080fd5b5061011f600480360381019061011a91906114e2565b6103e9565b60405161012c91906118d4565b60405180910390f35b61014f600480360381019061014a9190611613565b6104c2565b005b34801561015d57600080fd5b5061017860048036038101906101739190611534565b610677565b6040516101859190611947565b60405180910390f35b6101a860048036038101906101a39190611570565b6107a7565b005b3480156101b657600080fd5b506101bf610959565b6040516101cc919061192c565b60405180910390f35b3480156101e157600080fd5b506101fc60048036038101906101f791906114e2565b61097f565b60405161020c9493929190611a4c565b60405180910390f35b34801561022157600080fd5b5061023c600480360381019061023791906114a1565b610a67565b60405161024991906118f6565b60405180910390f35b34801561025e57600080fd5b50610267610a9d565b6040516102749190611911565b60405180910390f35b34801561028957600080fd5b506102a4600480360381019061029f91906114a1565b610ac3565b6040516102b191906118f6565b60405180910390f35b3480156102c657600080fd5b506102e160048036038101906102dc91906114a1565b610af9565b005b3480156102ef57600080fd5b5061030a60048036038101906103059190611478565b610bdb565b6040516103179190611969565b60405180910390f35b34801561032c57600080fd5b50610335610c8f565b6040516103429190611969565b60405180910390f35b61036560048036038101906103609190611570565b610c9c565b005b34801561037357600080fd5b5061038e600480360381019061038991906114e2565b610dda565b60405161039b9190611969565b60405180910390f35b3480156103b057600080fd5b506103cb60048036038101906103c691906115ac565b610e43565b005b6103e760048036038101906103e29190611570565b611138565b005b606060048281548110610425577f4e487b7100000000000000000000000000000000000000000000000000000000600052603260045260246000fd5b90600052602060002090600602016004018054806020026020016040519081016040528092919081815260200182805480156104b657602002820191906000526020600020905b8160009054906101000a900473ffffffffffffffffffffffffffffffffffffffff1673ffffffffffffffffffffffffffffffffffffffff168152602001906001019080831161046c575b50505050509050919050565b60048054905083106104d357600080fd5b600481106104e057600080fd5b60006004848154811061051c577f4e487b7100000000000000000000000000000000000000000000000000000000600052603260045260246000fd5b906000526020600020906006020160050160008473ffffffffffffffffffffffffffffffffffffffff1673ffffffffffffffffffffffffffffffffffffffff168152602001908152602001600020805461057590611d8b565b9050141561058257600080fd5b60008383338460405160200161059b94939291906119bb565b60405160208183030381529060405290506001816040516105bc9190611849565b908152602001604051809103902060009054906101000a900460ff16156105e257600080fd5b600360009054906101000a900473ffffffffffffffffffffffffffffffffffffffff1673ffffffffffffffffffffffffffffffffffffffff1663d0def52184836040518363ffffffff1660e01b815260040161063f92919061187b565b600060405180830381600087803b15801561065957600080fd5b505af115801561066d573d6000803e3d6000fd5b5050505050505050565b6060600061068484610dda565b1161068e57600080fd5b600483815481106106c8577f4e487b7100000000000000000000000000000000000000000000000000000000600052603260045260246000fd5b906000526020600020906006020160050160008373ffffffffffffffffffffffffffffffffffffffff1673ffffffffffffffffffffffffffffffffffffffff168152602001908152602001600020805461072190611d8b565b80601f016020809104026020016040519081016040528092919081815260200182805461074d90611d8b565b801561079a5780601f1061076f5761010080835404028352916020019161079a565b820191906000526020600020905b81548152906001019060200180831161077d57829003601f168201915b5050505050905092915050565b60048054905082106107b857600080fd5b34600483815481106107f3577f4e487b7100000000000000000000000000000000000000000000000000000000600052603260045260246000fd5b906000526020600020906006020160020160008282546108139190611c09565b925050819055508073ffffffffffffffffffffffffffffffffffffffff166108fc349081150290604051600060405180830381858888f19350505050158015610860573d6000803e3d6000fd5b507f53f38d23892c8f39da949a3f0104a3792f839931ef190898ad7535f1109b39bb82600484815481106108bd577f4e487b7100000000000000000000000000000000000000000000000000000000600052603260045260246000fd5b90600052602060002090600602016001013460048681548110610909577f4e487b7100000000000000000000000000000000000000000000000000000000600052603260045260246000fd5b906000526020600020906006020160030160009054906101000a900473ffffffffffffffffffffffffffffffffffffffff168560405161094d959493929190611ae4565b60405180910390a15050565b600260009054906101000a900473ffffffffffffffffffffffffffffffffffffffff1681565b6004818154811061098f57600080fd5b90600052602060002090600602016000915090508060000154908060010180546109b890611d8b565b80601f01602080910402602001604051908101604052809291908181526020018280546109e490611d8b565b8015610a315780601f10610a0657610100808354040283529160200191610a31565b820191906000526020600020905b815481529060010190602001808311610a1457829003601f168201915b5050505050908060020154908060030160009054906101000a900473ffffffffffffffffffffffffffffffffffffffff16905084565b6000818051602081018201805184825260208301602085012081835280955050505050506000915054906101000a900460ff1681565b600360009054906101000a900473ffffffffffffffffffffffffffffffffffffffff1681565b6001818051602081018201805184825260208301602085012081835280955050505050506000915054906101000a900460ff1681565b6000815111610b0757600080fd5b600060046001816001815401808255809150500390600052602060002090600602019050600480549050816000018190555081816001019080519060200190610b51929190611319565b50338160030160006101000a81548173ffffffffffffffffffffffffffffffffffffffff021916908373ffffffffffffffffffffffffffffffffffffffff1602179055507f75dbed2f4b10560e83c412e477ae7d3cc865ad4b331fd9d3bedb9d1caf36b149816000015483600033604051610bcf9493929190611a00565b60405180910390a15050565b6000600260009054906101000a900473ffffffffffffffffffffffffffffffffffffffff1673ffffffffffffffffffffffffffffffffffffffff166370a08231836040518263ffffffff1660e01b8152600401610c389190611860565b60206040518083038186803b158015610c5057600080fd5b505afa158015610c64573d6000803e3d6000fd5b505050506040513d601f19601f82011682018060405250810190610c88919061150b565b9050919050565b6000600480549050905090565b6004805490508210610cad57600080fd5b6000828233604051602001610cc493929190611984565b6040516020818303038152906040529050600081604051610ce59190611849565b908152602001604051809103902060009054906101000a900460ff16610d0a57600080fd5b600260009054906101000a900473ffffffffffffffffffffffffffffffffffffffff1673ffffffffffffffffffffffffffffffffffffffff16639dc29fac8360016040518363ffffffff1660e01b8152600401610d689291906118ab565b600060405180830381600087803b158015610d8257600080fd5b505af1158015610d96573d6000803e3d6000fd5b505050507f0c66462458ff8502ad0c2b7b30cbaf36c2f45a0c352050ec68a1380d4b623ac6838333604051610dcd93929190611984565b60405180910390a1505050565b60006004805490508210610ded57600080fd5b60048281548110610e27577f4e487b7100000000000000000000000000000000000000000000000000000000600052603260045260246000fd5b9060005260206000209060060201600401805490509050919050565b6004805490508310610e5457600080fd5b60048381548110610e8e577f4e487b7100000000000000000000000000000000000000000000000000000000600052603260045260246000fd5b906000526020600020906006020160030160009054906101000a900473ffffffffffffffffffffffffffffffffffffffff1673ffffffffffffffffffffffffffffffffffffffff168273ffffffffffffffffffffffffffffffffffffffff161415610ef857600080fd5b60048381548110610f32577f4e487b7100000000000000000000000000000000000000000000000000000000600052603260045260246000fd5b9060005260206000209060060201600401829080600181540180825580915050600190039060005260206000200160009091909190916101000a81548173ffffffffffffffffffffffffffffffffffffffff021916908373ffffffffffffffffffffffffffffffffffffffff1602179055508060048481548110610fdf577f4e487b7100000000000000000000000000000000000000000000000000000000600052603260045260246000fd5b906000526020600020906006020160050160008473ffffffffffffffffffffffffffffffffffffffff1673ffffffffffffffffffffffffffffffffffffffff1681526020019081526020016000209080519060200190611040929190611319565b507fda9d9532306ca391b9faab97df298b4a4ab517627ee3457239579de84f5acbd6836004858154811061109d577f4e487b7100000000000000000000000000000000000000000000000000000000600052603260045260246000fd5b9060005260206000209060060201600101600486815481106110e8577f4e487b7100000000000000000000000000000000000000000000000000000000600052603260045260246000fd5b906000526020600020906006020160030160009054906101000a900473ffffffffffffffffffffffffffffffffffffffff168560405161112b9493929190611a98565b60405180910390a1505050565b600480549050821061114957600080fd5b600060048381548110611185577f4e487b7100000000000000000000000000000000000000000000000000000000600052603260045260246000fd5b906000526020600020906006020160050160008373ffffffffffffffffffffffffffffffffffffffff1673ffffffffffffffffffffffffffffffffffffffff16815260200190815260200160002080546111de90611d8b565b905014156111eb57600080fd5b600082823360405160200161120293929190611984565b60405160208183030381529060405290506000816040516112239190611849565b908152602001604051809103902060009054906101000a900460ff161561124957600080fd5b600260009054906101000a900473ffffffffffffffffffffffffffffffffffffffff1673ffffffffffffffffffffffffffffffffffffffff166340c10f198360016040518363ffffffff1660e01b81526004016112a79291906118ab565b600060405180830381600087803b1580156112c157600080fd5b505af11580156112d5573d6000803e3d6000fd5b505050507fb0e2fdeb939f7c4bd17f4b82804b0a050950d5ccaaf3aa22206ea5b80bcdb91483833360405161130c93929190611984565b60405180910390a1505050565b82805461132590611d8b565b90600052602060002090601f016020900481019282611347576000855561138e565b82601f1061136057805160ff191683800117855561138e565b8280016001018555821561138e579182015b8281111561138d578251825591602001919060010190611372565b5b50905061139b919061139f565b5090565b5b808211156113b85760008160009055506001016113a0565b5090565b60006113cf6113ca84611b63565b611b3e565b9050828152602081018484840111156113e757600080fd5b6113f2848285611d49565b509392505050565b60008135905061140981611e8c565b92915050565b60008135905061141e81611ea3565b92915050565b600082601f83011261143557600080fd5b81356114458482602086016113bc565b91505092915050565b60008135905061145d81611eba565b92915050565b60008151905061147281611eba565b92915050565b60006020828403121561148a57600080fd5b6000611498848285016113fa565b91505092915050565b6000602082840312156114b357600080fd5b600082013567ffffffffffffffff8111156114cd57600080fd5b6114d984828501611424565b91505092915050565b6000602082840312156114f457600080fd5b60006115028482850161144e565b91505092915050565b60006020828403121561151d57600080fd5b600061152b84828501611463565b91505092915050565b6000806040838503121561154757600080fd5b60006115558582860161144e565b9250506020611566858286016113fa565b9150509250929050565b6000806040838503121561158357600080fd5b60006115918582860161144e565b92505060206115a28582860161140f565b9150509250929050565b6000806000606084860312156115c157600080fd5b60006115cf8682870161144e565b93505060206115e08682870161140f565b925050604084013567ffffffffffffffff8111156115fd57600080fd5b61160986828701611424565b9150509250925092565b60008060006060848603121561162857600080fd5b60006116368682870161144e565b93505060206116478682870161140f565b92505060406116588682870161144e565b9150509250925092565b600061166e8383611698565b60208301905092915050565b61168381611cb9565b82525050565b61169281611c71565b82525050565b6116a181611c5f565b82525050565b6116b081611c5f565b82525050565b60006116c182611bb9565b6116cb8185611bdc565b93506116d683611b94565b8060005b838110156117075781516116ee8882611662565b97506116f983611bcf565b9250506001810190506116da565b5085935050505092915050565b61171d81611c83565b82525050565b61172c81611ccb565b82525050565b61173b81611cef565b82525050565b61174a81611d13565b82525050565b600061175b82611bc4565b6117658185611bed565b9350611775818560208601611d58565b61177e81611e7b565b840191505092915050565b600061179482611bc4565b61179e8185611bfe565b93506117ae818560208601611d58565b80840191505092915050565b600081546117c781611d8b565b6117d18186611bed565b945060018216600081146117ec57600181146117fe57611831565b60ff1983168652602086019350611831565b61180785611ba4565b60005b838110156118295781548189015260018201915060208101905061180a565b808801955050505b50505092915050565b61184381611caf565b82525050565b60006118558284611789565b915081905092915050565b600060208201905061187560008301846116a7565b92915050565b6000604082019050611890600083018561167a565b81810360208301526118a28184611750565b90509392505050565b60006040820190506118c0600083018561167a565b6118cd602083018461183a565b9392505050565b600060208201905081810360008301526118ee81846116b6565b905092915050565b600060208201905061190b6000830184611714565b92915050565b60006020820190506119266000830184611723565b92915050565b60006020820190506119416000830184611732565b92915050565b600060208201905081810360008301526119618184611750565b905092915050565b600060208201905061197e600083018461183a565b92915050565b6000606082019050611999600083018661183a565b6119a66020830185611689565b6119b360408301846116a7565b949350505050565b60006080820190506119d0600083018761183a565b6119dd6020830186611689565b6119ea60408301856116a7565b6119f7606083018461183a565b95945050505050565b6000608082019050611a15600083018761183a565b8181036020830152611a278186611750565b9050611a366040830185611741565b611a4360608301846116a7565b95945050505050565b6000608082019050611a61600083018761183a565b8181036020830152611a738186611750565b9050611a82604083018561183a565b611a8f60608301846116a7565b95945050505050565b6000608082019050611aad600083018761183a565b8181036020830152611abf81866117ba565b9050611ace60408301856116a7565b611adb6060830184611689565b95945050505050565b600060a082019050611af9600083018861183a565b8181036020830152611b0b81876117ba565b9050611b1a604083018661183a565b611b2760608301856116a7565b611b346080830184611689565b9695505050505050565b6000611b48611b59565b9050611b548282611dbd565b919050565b6000604051905090565b600067ffffffffffffffff821115611b7e57611b7d611e4c565b5b611b8782611e7b565b9050602081019050919050565b6000819050602082019050919050565b60008190508160005260206000209050919050565b600081519050919050565b600081519050919050565b6000602082019050919050565b600082825260208201905092915050565b600082825260208201905092915050565b600081905092915050565b6000611c1482611caf565b9150611c1f83611caf565b9250827fffffffffffffffffffffffffffffffffffffffffffffffffffffffffffffffff03821115611c5457611c53611dee565b5b828201905092915050565b6000611c6a82611c8f565b9050919050565b6000611c7c82611c8f565b9050919050565b60008115159050919050565b600073ffffffffffffffffffffffffffffffffffffffff82169050919050565b6000819050919050565b6000611cc482611d25565b9050919050565b6000611cd682611cdd565b9050919050565b6000611ce882611c8f565b9050919050565b6000611cfa82611d01565b9050919050565b6000611d0c82611c8f565b9050919050565b6000611d1e82611caf565b9050919050565b6000611d3082611d37565b9050919050565b6000611d4282611c8f565b9050919050565b82818337600083830152505050565b60005b83811015611d76578082015181840152602081019050611d5b565b83811115611d85576000848401525b50505050565b60006002820490506001821680611da357607f821691505b60208210811415611db757611db6611e1d565b5b50919050565b611dc682611e7b565b810181811067ffffffffffffffff82111715611de557611de4611e4c565b5b80604052505050565b7f4e487b7100000000000000000000000000000000000000000000000000000000600052601160045260246000fd5b7f4e487b7100000000000000000000000000000000000000000000000000000000600052602260045260246000fd5b7f4e487b7100000000000000000000000000000000000000000000000000000000600052604160045260246000fd5b6000601f19601f8301169050919050565b611e9581611c5f565b8114611ea057600080fd5b50565b611eac81611c71565b8114611eb757600080fd5b50565b611ec381611caf565b8114611ece57600080fd5b5056fea26469706673582212209f0e6ba9be2aa2709f1cf0a73af803332e4aa6e31181f68690c1649a01dfe96b64736f6c63430008010033",
  "immutableReferences": {},
  "source": "pragma solidity ^0.8.0;\r\n\r\nimport \"./ReputationToken.sol\";\r\nimport \"./AwardsToken.sol\";\r\n\r\nuint constant REPUTATION = 1;\r\n\r\ncontract Rewards {\r\n    mapping(string => bool) public hasGivenReputation;\r\n    mapping(string => bool) public hasGivenAward;\r\n    ReputationToken public reputationtoken;\r\n    AwardsToken public awardsToken;\r\n\r\n    struct Paper {\r\n        uint id;\r\n        string title;\r\n        uint tipAmount;\r\n        address author;\r\n        address[] reviewers;\r\n        mapping(address => string) reviews;\r\n    }\r\n\r\n    Paper[] public papers;\r\n\r\n    event PaperCreated(\r\n        uint id,\r\n        string title,\r\n        uint tipAmount,\r\n        address author\r\n    );\r\n\r\n    event ReviewerAdded(\r\n        uint id,\r\n        string title,\r\n        address author,\r\n        address payable reviewer\r\n    );\r\n\r\n    event ReviewerTipped(\r\n        uint id,\r\n        string title,\r\n        uint tipAmount,\r\n        address author,\r\n        address payable reviewer\r\n    );\r\n\r\n    event ReputationGiven(\r\n        uint id,\r\n        address payable reviewer,\r\n        address user\r\n    );\r\n\r\n    event ReputationTaken(\r\n        uint id,\r\n        address payable reviewer,\r\n        address user\r\n    );\r\n\r\n    function createPaper(string memory _title) public {\r\n        require(bytes(_title).length > 0);\r\n        Paper storage paper = papers.push();\r\n        paper.id = papers.length;\r\n        paper.title = _title;\r\n        paper.author = msg.sender;\r\n        emit PaperCreated(paper.id, _title, 0, msg.sender);\r\n    }\r\n\r\n    function addReviewer(uint _id, address payable _reviewer, string memory review) public {\r\n        require(_id < papers.length);\r\n        require(_reviewer != papers[_id].author); // Can't review yourself TODO: check review not empty\r\n        papers[_id].reviewers.push(_reviewer);\r\n        papers[_id].reviews[_reviewer] = review;\r\n\r\n        emit ReviewerAdded(_id, papers[_id].title, papers[_id].author, _reviewer);\r\n    }\r\n\r\n    function tipReviewer(uint _id, address payable _reviewer) public payable{\r\n        require(_id < papers.length);\r\n\r\n        papers[_id].tipAmount += msg.value;\r\n        _reviewer.transfer(msg.value);\r\n\r\n        emit ReviewerTipped(_id, papers[_id].title, msg.value, papers[_id].author, _reviewer);\r\n    }\r\n\r\n    function giveReputation(uint _id, address payable _reviewer) public payable{\r\n        require(_id < papers.length);\r\n        require(bytes(papers[_id].reviews[_reviewer]).length != 0);\r\n        string memory _hash = string(abi.encode(_id, _reviewer, msg.sender));\r\n        require(!hasGivenReputation[_hash]);\r\n        reputationtoken.mint(_reviewer, REPUTATION);\r\n\r\n        emit ReputationGiven(_id,  _reviewer, msg.sender);\r\n    }\r\n\r\n    function undoGiveReputation(uint _id, address payable _reviewer) public payable{\r\n        require(_id < papers.length);\r\n        string memory _hash = string(abi.encode(_id, _reviewer, msg.sender));\r\n        require(hasGivenReputation[_hash]);\r\n        reputationtoken.burn(_reviewer, REPUTATION);\r\n\r\n        emit ReputationTaken(_id,  _reviewer, msg.sender);\r\n    }\r\n\r\n    function getReputation(address _reviewer) public view returns (uint256) {\r\n        return reputationtoken.balanceOf(_reviewer);\r\n    }\r\n\r\n    //TODO test and event\r\n    function giveAward(uint _id, address payable _reviewer, uint _awardId ) public payable{\r\n        require(_id < papers.length);\r\n        require(_awardId < 4);\r\n        require(bytes(papers[_id].reviews[_reviewer]).length != 0);\r\n        string memory _hash = string(abi.encode(_id, _reviewer, msg.sender, _awardId));\r\n        require(!hasGivenAward[_hash]);\r\n        awardsToken.mint(_reviewer, _hash);\r\n\r\n        //emit ReputationGiven(_id,  _reviewer, msg.sender);\r\n    }\r\n\r\n    function getReviewers(uint _id) public view returns (address [] memory){\r\n        return papers[_id].reviewers;\r\n    }\r\n\r\n    function getReviews(uint _id, address _reviewer) public view returns (string memory){\r\n        require(reviewerCount(_id) > 0);\r\n        return papers[_id].reviews[_reviewer];\r\n    }\r\n\r\n    function paperCount() public view returns (uint256) {\r\n        return papers.length;\r\n    }\r\n\r\n    function reviewerCount(uint _id) public view returns (uint256) {\r\n        require(_id < papers.length);\r\n        return papers[_id].reviewers.length;\r\n    }\r\n}",
  "sourcePath": "C:/Users/carlo/Desktop/UCM/TFG/Rewards/contracts/Rewards.sol",
  "compiler": {
    "name": "solc",
    "version": "0.8.1+commit.df193b15.Emscripten.clang"
  },
  "schemaVersion": "3.3.4",
  "updatedAt": "2021-03-15T19:59:52.255Z",
  "networkType": "ethereum",
  "devdoc": {
    "kind": "dev",
    "methods": {},
    "version": 1
  },
  "userdoc": {
    "kind": "user",
    "methods": {},
    "version": 1
  }
}